:020000040000FA
:0400000054EF00F0C9
:1000080029002900290029002900290029002900A0
:1000180029002900030329002900290029002900B3
:100028002900290029002900290029002900290080
:100038002900290029002900290029002900290070
:100048002900290029002900290029002900290060
:100058009A002900290029002900290029002900DF
:100068002900290029002900290029002900290040
:100078002900290029002900290029002900290030
:100088002900290029002900290029002900290020
:100098002900290029002900290029002900FF003A
:1000A800F4EF05F0600E3901D96F31EC03F0DDECA7
:1000B80005F064EC05F0EFEC02F0D28CD29A39012D
:1000C80095819583D28ECC92A7EC05F0CC82C2ECB8
:1000D80005F0CC9232EC04F01B041C10D8A409D013
:1000E80031EC05F060006CF033F0600070F034F033
:1000F80002D033683468C2EC05F0CC94A7EC05F064
:10010800CC84C2EC05F0CC94FFEC03F01B041C106B
:10011800D8A409D0FEEC04F060006CF031F0600067
:1001280070F032F002D031683268C2EC05F0CC9E33
:10013800A7EC05F0CC8EC2EC05F0CC9ECCEC03F01D
:100148001B041C10D8A409D0CBEC04F060006CF0A0
:100158002FF0600070F030F002D02F683068C2ECE9
:1001680005F0CA92A7EC05F0CA82C2EC05F0CA9263
:1001780099EC03F01B041C10D8A409D098EC04F0E7
:1001880060006CF02DF0600070F02EF002D02D6849
:100198002E68C2EC05F0CA94A7EC05F0CA84C2EC3C
:1001A80005F0CA9466EC03F01B041C10D8A409D00F
:1001B80065EC04F060006CF02BF0600070F02CF03F
:1001C80002D02B682C68C2EC05F0000E1C6E000EE5
:1001D8001B6E87EC05F060006CF023F0600070F097
:1001E80024F0000E1C6E010E1B6E87EC05F06000FB
:1001F8006CF025F0600070F026F0600090F021F0BF
:10020800226A21BE226821503B6E3C6A2350396E17
:100218003A6A600098F021F0226A21BE22682150D3
:10022800376E386A2550356E366A3D0E1B6E000EE5
:100238001C6E090EF3EC01F060006CF029F0600010
:1002480070F02AF03D0E1B6E000E1C6E0A0EF3ECC9
:1002580001F060006CF027F0600070F028F033D7F0
:1002680080BE96D0B9D0000E0C6E010E0B6E000E3B
:10027800026E000E016E0B0E036E000E046E000E71
:10028800066E010E056E84EC02F0A5D06000ECF05D
:100298000BF06000F0F00CF06000E4F00DF060008E
:1002A800E8F00EF0000E026E000E016E0B0E036EEB
:1002B800000E046E000E066E020E056E84EC02F04F
:1002C8008AD06000DCF00BF06000E0F00CF0600019
:1002D800D4F00DF06000D8F00EF0E4D76000D0F054
:1002E80009F00A6A09BE0A6809500B6E0C6A335095
:1002F8002BD06000C8F009F00A6A09BE0A680950E4
:100308000B6E0C6A315020D06000C0F009F00A6A08
:1003180009BE0A6809500B6E0C6A2F5015D0600090
:10032800B8F009F00A6A09BE0A6809500B6E0C6A2F
:100338002D500AD06000B0F009F00A6A09BE0A68B8
:1003480009500B6E0C6A2B500D6E0E6AABD760000D
:10035800A4F00BF06000A8F00CF060009CF00DF029
:100368006000A0F00EF06000F4F00FF06000F8F00C
:1003780010F0000E026E000E016E0B0E036E000EE2
:10038800046E000E066E030E056E84EC02F023D098
:100398008650096E0A6A0A50000AD8A41CD009506F
:1003A800000AD8B460D7010AD8B470D7030AD8B401
:1003B80088D7010AD8B492D7070AD8B49AD7010ABD
:1003C800D8B4A2D7030AD8B4AAD7010AD8B4B2D7E6
:1003D8000F0AD8B4BCD7809E3901A59111001D6EB3
:1003E80060006FF0D9FF600073F0DAFF010EDE6E77
:1003F800000EDD6E100E3D016E6F600077F06BFD34
:1004080077AFFED7010E6C6F738D738B000E206E65
:10041800000E1F6E02D01F4A202A73B708D020BED4
:10042800FAD7A80E1F5C610E2058D8A0F4D720BEBA
:1004380010D0A80E1F5C610E2058D8A00AD060000A
:100448006FF0D9FF600073F0DAFF000EDE6E000E69
:10045800DD6E110E6E6F010E6C6F738B739D000E47
:10046800206E000E1F6E02D01F4A202A78B108D0D5
:1004780020BEFAD7A80E1F5C610E2058D8A0F4D76A
:1004880020BE10D0A80E1F5C610E2058D8A00AD03C
:1004980060006FF0D9FF600073F0DAFF000EDE6EC7
:1004A800000EDD6E6F00A8F51EF0000E206E000E27
:1004B8001F6E02D01F4A202A79B508D020BEFAD76D
:1004C800A80E1F5C610E2058D8A0F4D720BE10D00B
:1004D800A80E1F5C610E2058D8A00AD060006FF0EB
:1004E800D9FF600073F0DAFF000EDE6E000EDD6EDD
:1004F800799579917885600078F01BF01C6A120074
:100508003701E097F10E8F16030EE01360000FF02D
:10051800D9FF600013F0DAFFDF50E66F20EE02F03B
:100528000350D9260450DA22DF50E76F20EE04F09A
:100538000350D9260450DA22DF50E86F20EE06F087
:100548000350D9260450DA22DF50E96F20EE08F074
:100558000350D9260450DA22DF50EA6F20EE0AF061
:100568000350D9260450DA22DF50EB6F20EE0CF04E
:100578000350D9260450DA22DF50EC6F20EE0EF03B
:100588000350D9260450DA22DF50ED6F600004F0E2
:1005980007F0073A0746E25107181F0B0718E26FE2
:1005A800600004F007F0600008F008F00834083232
:1005B8000732083408320732083408320732075045
:1005C800E16FE5510518F00B0518E56FE59DE0872B
:1005D800E0B71200FDD7BC96BC98C496C4983A01FF
:1005E8006097609962876289010E6A6F6397010E4E
:1005F8006B6F6399D2AE02D0010E01D0000E1B6E54
:100608001C6AD29E550EBF6FAA0EBF6FBF91210EF6
:10061800136F220E146FE451E00B1409E46FE351D9
:10062800E00B1309E36F550EBF6FAA0EBF6FBF81B2
:100638001BA002D0D28E01D0D29E040E3D01736F52
:10064800800E746F240E756F030E7B6F000E796F2A
:10065800000E766F738F76811200330E3A010A6F9F
:10066800C394C386509550978F8E8F9C8F9A8E38DF
:10067800E832070B040AD8A4FAD737010351C00B94
:100688001F09036F000EA06FA1511F0B2009A16F56
:10069800A197B869E00EB913809C808A8090A469FC
:1006A800E00EA513A597BC69E00EBD13F09DF08B75
:1006B800F0911F0E8F168E38E832070B0009D8B458
:1006C8001200F9D7000E206E000E1F6E000EB16EDC
:1006D800000EB06EB2800DD0B0506F00C4FE1DF099
:1006E8001E6A600074F01EF01D6A1D101F6E1E50F9
:1006F800206ECAB808D020BEEFD7100E1F5C270E98
:100708002058D8A0E9D720BE0BD0100E1F5C270EAA
:100718002058D8A005D0000E1C6E000E1B6E1200CB
:10072800000E1C6E010E1B6E1200000E206E000ED5
:100738001F6E000EB16E000EB06EB2800DD0B050BC
:100748006F00C4FE1DF01E6A600074F01EF01D6A82
:100758001D101F6E1E50206ECBB808D020BEEFD7DC
:10076800100E1F5C270E2058D8A0E9D720BE0BD04A
:10077800100E1F5C270E2058D8A005D0000E1C6E46
:10078800000E1B6E1200000E1C6E010E1B6E120076
:10079800000E206E000E1F6E000EB16E000EB06EC1
:1007A800B2800DD0B0506F00C4FE1DF01E6A60000C
:1007B80074F01EF01D6A1D101F6E1E50206ECABAFE
:1007C80008D020BEEFD7100E1F5C270E2058D8A0E7
:1007D800E9D720BE0BD0100E1F5C270E2058D8A0DA
:1007E80005D0000E1C6E000E1B6E1200000E1C6E53
:1007F800010E1B6E1200000E206E000E1F6E000E02
:10080800B16E000EB06EB2800DD0B0506F00C4FE55
:100818001DF01E6A600074F01EF01D6A1D101F6E28
:100828001E50206ECBB008D020BEEFD7100E1F5C34
:10083800270E2058D8A0E9D720BE0BD0100E1F5C79
:10084800270E2058D8A005D0000E1C6E000E1B6E77
:100858001200000E1C6E010E1B6E1200000E206EA0
:10086800000E1F6E000EB16E000EB06EB2800DD07D
:10087800B0506F00C4FE1DF01E6A600074F01EF0D8
:100888001D6A1D101F6E1E50206ECBB208D020BEF0
:10089800EFD7100E1F5C270E2058D8A0E9D720BE2E
:1008A8000BD0100E1F5C270E2058D8A005D0000EC4
:1008B8001C6E000E1B6E1200000E1C6E010E1B6ECD
:1008C8001200000E206E000E1F6E000EB16E000E9C
:1008D800B06E0DD0B0506F00C4FE1DF01E6A6000EF
:1008E80074F01EF01D6A1D101F6E1E50206ECAA8DF
:1008F80008D020BEEFD7980E1F5C3A0E2058D8A01B
:10090800E9D7B29020BE09D0980E1F5C3A0E205845
:10091800D8A003D01B681C68120060007CF01BF094
:10092800600080F01CF01200000E206E000E1F6E9A
:10093800000EB16E000EB06E0DD0B0506F00C4FE48
:100948001DF01E6A600074F01EF01D6A1D101F6EF7
:100958001E50206ECBA808D020BEEFD7980E1F5C83
:100968003A0E2058D8A0E9D7B29020BE09D0980EE8
:100978001F5C3A0E2058D8A003D01B681C681200D0
:1009880060007CF01BF0600080F01CF01200000E8C
:10099800206E000E1F6E000EB16E000EB06E0DD0F0
:1009A800B0506F00C4FE1DF01E6A600074F01EF0A7
:1009B8001D6A1D101F6E1E50206ECAAA08D020BEC8
:1009C800EFD7980E1F5C3A0E2058D8A0E9D7B290FE
:1009D80020BE09D0980E1F5C3A0E2058D8A003D02C
:1009E8001B681C68120060007CF01BF0600080F03F
:1009F8001CF01200000E206E000E1F6E000EB16E6D
:100A0800000EB06E0DD0B0506F00C4FE1DF01E6A0F
:100A1800600074F01EF01D6A1D101F6E1E50206EBF
:100A2800CBA008D020BEEFD7980E1F5C3A0E2058F6
:100A3800D8A0E9D7B29020BE09D0980E1F5C3A0E14
:100A48002058D8A003D01B681C68120060007CF0F6
:100A58001BF0600080F01CF01200000E206E000EEB
:100A68001F6E000EB16E000EB06E0DD0B0506F004C
:100A7800C4FE1DF01E6A600074F01EF01D6A1D1091
:100A88001F6E1E50206ECBA208D020BEEFD7980E46
:100A98001F5C3A0E2058D8A0E9D7B29020BE09D0E2
:100AA800980E1F5C3A0E2058D8A003D01B681C680B
:100AB800120060007CF01BF0600080F01CF0120057
:100AC800010EB56E300EB212000EB16E000EB06E91
:100AD8003A0160936095609F409340955093509180
:100AE800409B50994099C492C494C49EC292C294A7
:100AF800C382C380C28AC388C288CC92CC94CC9E5D
:100B0800CA92CA9412001B501C10D8A405D03E01EA
:100B1800F151C00B160908D01B041C10D8A405D02D
:100B28003E01F151C00B1509F16F3E01F881F8B192
:100B3800FED7F0511E6E1D6AEF511D241B6E000E6C
:100B48001E201C6E1200000E1B6E000E1C6E000E86
:100B58001D6E000E1E6E00F0010E1B26000E1C22DC
:100B68001D221E221EBEF7D71E501D101C1005E1A7
:100B7800020E1B5CD8B01200EED71200000E1B6EDE
:100B8800000E1C6E000E1D6E000E1E6E00F0010E93
:100B98001B26000E1C221D221E221EBEF7D71E5029
:100BA8001D101C1005E1060E1B5CD8B01200EED714
:100BB8001200C48CC48A3A01608D608B3E01F88FA4
:100BC800FF51C00B1C09FF6FF30EF8170F0EFD172E
:100BD800F00EFD17F151C00B1609F16FF88F1200D6
:100BE80000EE27F0180EEE6AE806FDE1080ED56E55
:100BF800000ED66E000ED76E000EF86E000156EF8E
:020C080000F0FA
:020C0C001100D5
:020000040020DA
:10000000FF0FFF0FFF0FFF0FFF0FFF0FFF0FFF0F80
:020000040030CA
:0A0000008FFFFFFF9FFFFFFFFFFFD0
:00000001FF
