:020000040000FA
:0400000054EF00F0C9
:1000080029002900290029002900290029002900A0
:10001800C8002900CB00290029002900290029004F
:100028002900290029002900290029002900290080
:100038002900290029002900290029002900290070
:100048002900290029002900290029002900290060
:100058009A002900290029002900290029002900DF
:100068002900290029002900290029002900290040
:100078002900290029002900290029002900290030
:100088002900290029002900290029002900290020
:100098002900290029002900290029002900FF003A
:1000A80072EF01F03701E097F10E8F16030EE0139F
:1000B80060000FF0D9FF600013F0DAFFDF50E66F41
:1000C80020EE02F00350D9260450DA22DF50E76F01
:1000D80020EE04F00350D9260450DA22DF50E86FEE
:1000E80020EE06F00350D9260450DA22DF50E96FDB
:1000F80020EE08F00350D9260450DA22DF50EA6FC8
:1001080020EE0AF00350D9260450DA22DF50EB6FB4
:1001180020EE0CF00350D9260450DA22DF50EC6FA1
:1001280020EE0EF00350D9260450DA22DF50ED6F8E
:10013800600004F007F0073A0746E25107181F0B62
:100148000718E26F600004F007F0600008F008F09C
:1001580008340832073208340832073208340832C3
:1001680007320750E16FE5510518F00B0518E56FE8
:10017800E59DE087E0B71200FDD7600E3901D96F21
:10018800FEEC00F03A014091000EC06FC2803901C8
:100198009181A191D290D28CD28ED29A9581958359
:1001A800000E1F6E040E1E6ED28E000E1F6E050E00
:1001B8001E6E83EC01F0000E1F6E060E1E6E000E02
:1001C8001F6E070E1E6E000E1F6E080E1E6E000EAE
:1001D8001F6E0A0E1E6E1E4A1F2A520E1D6E2B0E11
:1001E8001C6E000EE82EFED71C2EFCD71D2EFAD74B
:1001F80000D0F1D7330E3A010A6FC394C3865095E5
:1002080050978F8E8F9C8F9A8E38E832070B040A8E
:10021800D8A4FAD737010351C00B1F09036F000E8A
:10022800A06FA1511F0B4009A16FA197B869E00EFB
:10023800B913809C808A8090A469E00EA513A597C5
:10024800BC69E00EBD13F09DF08BF0911F0E8F1668
:0E0258008E38E832070B0009D8B41200F9D72F
:10026800CB8080BE16D021D0600078F00BF0600003
:100278007CF00CF0000E026E000E016E0B0E036E89
:10028800000E046E000E066E010E056E56EC00F0B0
:100298000BD08650096E0A6A0A50000AD8A404D006
:1002A8000950000AD8B4E0D7809E3901A591110001
:1002B8001B6E1BA002D0CC8401D0CC941BA202D010
:1002C800CC8A01D0CC9A1BA402D0CC8C01D0CC9C77
:1002D8001BA602D0CC8E1200CC9E120000EE1EF09F
:1002E8000B0EEE6AE806FDE1080ED56E000ED66E1E
:1002F800000ED76E000EF86E0001C1EF00F0000E80
:10030800C46EC3903A015091CB80000E606F000E0E
:060318005CEC01F0120094
:0E032000CB901E4A1F2A3901A1911100110035
:020000040020DA
:10000000FF0FFF0FFF0FFF0FFF0FFF0FFF0FFF0F80
:020000040030CA
:0A0000008FFFFFFF9FFFFFFFFFFFD0
:00000001FF
