:020000040000FA
:0400000054EF00F0C9
:1000080029002900290029002900290029002900A0
:10001800A00E29005F0F29002900290029002900C6
:100028002900290029002900290029002900290080
:100038002900290029002900290029002900570F33
:100048002900290029002900290029002900290060
:10005800F60C530F2900290029002900290029003E
:100068002900290029002900290029002900290040
:100078002900290029002900290029002900290030
:100088002900290029002900290029002900290020
:100098002900290029002900290029002900FF003A
:1000A80024EF18F0000E0001A46F000EA36F60008B
:1000B800FCF1B5F0600000F2B6F0600004F2B7F0B1
:1000C800600008F2B8F0B8AF1ED0000EA46F010EA1
:1000D800A36F6000D4F21CF06000D8F21DF060003D
:1000E800DCF21EF06000E0F21FF0E1EC1DF06000B1
:1000F80070F0B5F0600074F0B6F0600078F0B7F01A
:1001080060007CF0B8F0000E0001BC6F000EBB6F01
:100118006000C4F0A8F06000C8F0A9F0A351A411D1
:10012800D8A402D035A414D0A351A411D8A404D0C3
:10013800000E8E6F2B0E03D0000E8E6F2D0E8D6F5E
:10014800600034F20BF1BB4BBC2BA807D8A0A90761
:100158006000D4F21CF06000D8F21DF06000DCF200
:100168001EF06000E0F21FF075EC16F01C041D1084
:10017800D8A453D0BF0E0001846FFF0E856F835142
:10018800866F876B8451862785518723875106E1BF
:100198001A0E865DD8B002D0010E01D0000E8F6F06
:1001A800906B8F519011D8B40DD00B0EBB251C6EDF
:1001B800010EBC211D6EE70E1E6E7F0E1F6E81ECB8
:1001C8001CF00CD00B0EBB251C6E010EBC211D6E45
:1001D800EF0E1E6E7F0E1F6E81EC1CF00001FD0EEF
:1001E800A827FF0EA9236000F4F160F06000F8F181
:1001F80061F00B0E0001626F010E636F6000A0F2E8
:1002080064F06000A4F265F0E9EC18F0600080F199
:100218007DF0600084F17EF012006000D4F21CF0E2
:100228006000D8F21DF06000DCF21EF06000E0F221
:100238001FF075EC16F01C501D10D8A435D0BF0E59
:100248000001846FFF0E856F8351866F876B845121
:10025800862785518723875106E11A0E865DD8B017
:1002680002D0010E01D0000E916F926B9151921144
:10027800D8B40DD00B0EBB251C6E010EBC211D6E13
:10028800EB0E1E6E7F0E1F6E81EC1CF0A7D70B0EB7
:10029800BB251C6E010EBC211D6EF30E1E6E7F0E5B
:1002A8001F6E81EC1CF09AD7000E0001BD6F000E86
:1002B800BE6F800EBF6F3F0EC06F000EBA6F000E8C
:1002C800B96F6000D4F21CF06000D8F21DF0600035
:1002D800DCF21EF06000E0F21FF0000E206E000E4F
:1002E800216E000E226E000E236E13EC1BF0D8A0B8
:1002F80026D09CD06000F4F21CF06000F8F21DF0EB
:100308006000FCF21EF0600000F31FF0000E206E8B
:10031800000E216E200E226E410E236E98EC0CF01A
:10032800600070F0BDF0600074F0BEF0600078F01E
:10033800BFF060007CF0C0F00001B94BBA2B600040
:10034800D4F26DF06000D8F26EF06000DCF26FF06D
:100358006000E0F270F0000E206E000E216E200E9C
:10036800226E410E236E6000F4F21CF06000F8F279
:100378001DF06000FCF21EF0600000F31FF098EC26
:100388000CF0600070F071F0600074F072F06000C2
:1003980078F073F060007CF074F056EC17F0000110
:1003A800D8A027D0A7D76000F4F21CF06000F8F2BC
:1003B8001DF06000FCF21EF0600000F31FF0000E5C
:1003C800206E000E216E200E226E410E236E6FEC01
:1003D80011F0600070F0BDF0600074F0BEF06000D5
:1003E80078F0BFF060007CF0C0F00001B907D8A039
:1003F800BA076000D4F26DF06000D8F26EF06000C9
:10040800DCF26FF06000E0F270F06000F4F271F07E
:100418006000F8F272F06000FCF273F0600000F324
:1004280074F056EC17F00001D8A0BDD760000CF2AC
:1004380022F0236A15EC1DF022500001AA6F60001B
:10044800A8F2A7F0670EAA19D8A41BD0335034100D
:10045800D8A404D0000E346E010E336E34BE05D01D
:10046800345008E13304D8B005D0000EA66F060E4C
:10047800A56F0AD06000CCF0A5F06000D0F0A6F01F
:1004880003D034AEF7D7F1D7670EAA19D8A424D071
:10049800BAAF06D0FC0EB95DFF0EBA59D8A01AD073
:1004A800FF0E846FFF0E856F600094F286F0600087
:1004B80098F287F08451862785518723B951865D44
:1004C8008751800A886FBA51800A8859D8A002D00B
:1004D800660E01D0650EA76F600094F29DF0600073
:1004E80098F29EF0670EAA19D8A405D0660EA7192F
:1004F800D8B4BAAF02D09D4B9E2B660EA719D8A4CC
:1005080016D0BAAF0CD0000EBD6F000EBE6F800EB5
:10051800BF6F3F0EC06F000EBA6F000EB96F670E47
:10052800AA19D8B404D0B9519D27BA519E23000EF8
:10053800B46F000EB36F6000D4F2ABF06000D8F275
:10054800ACF06000DCF2ADF06000E0F2AEF060000C
:10055800F4F289F06000F8F28AF06000FCF28BF0A7
:10056800600000F38CF0ADD06000ACF21CF06000CD
:10057800B0F21DF06000B4F21EF06000B8F21FF097
:100588006000F4F220F06000F8F221F06000FCF264
:1005980022F0600000F323F06FEC11F0600070F0BF
:1005A80028F0600074F029F0600078F02AF060000C
:1005B8007CF02BF0C6EC12F06000A0F0AFF0600009
:1005C800A4F0B0F06000A8F0B1F06000ACF0B2F0B8
:1005D8006000BCF21CF06000C0F21DF06000C4F2C4
:1005E8001EF06000C8F21FF0BFEC17F0600070F05A
:1005F800A1F0600074F0A2F06000ACF26DF0600051
:10060800B0F26EF06000B4F26FF06000B8F270F013
:100618006000F4F220F06000F8F221F06000FCF2D3
:1006280022F0600000F323F06000BCF21CF06000D0
:10063800C0F21DF06000C4F21EF06000C8F21FF0A6
:1006480098EC0CF0600070F071F0600074F072F0DB
:10065800600078F073F060007CF074F0E5EC1CF05A
:100668006000B4F1ABF06000B8F1ACF06000BCF130
:10067800ADF06000C0F1AEF06000F4F21CF0600074
:10068800F8F21DF06000FCF21EF0600000F31FF0AD
:10069800000E206E000E216E200E226E410E236E7B
:1006A8006FEC11F0600070F0BDF0600074F0BEF007
:1006B800600078F0BFF060007CF0C0F00001B34B40
:1006C800B42B9D51B35DB451800A846F9E51800A4A
:1006D8008459D8A049D76000F4F21CF06000F8F201
:1006E8001DF06000FCF21EF0600000F31FF0000E29
:1006F800206E000E216EA00E226E400E236E98EC26
:100708000CF0600070F0AFF0600074F0B0F06000C2
:1007180078F0B1F060007CF0B2F06000ACF26DF0FF
:100728006000B0F26EF06000B4F26FF06000B8F2F2
:1007380070F06000BCF271F06000C0F272F060000E
:10074800C4F273F06000C8F274F056EC17F00001C0
:10075800D8A01FD06000ACF21CF06000B0F21DF011
:100768006000B4F21EF06000B8F21FF06000BCF246
:1007780020F06000C0F221F06000C4F222F06000B6
:10078800C8F223F013EC1BF0D8A00BD00001A1B1E4
:1007980008D0000EAF6F000EB06F000EB16F000EE4
:1007A800B26F6000D4F21CF06000D8F21DF0600057
:1007B800DCF21EF06000E0F21FF06000BCF220F0F6
:1007C8006000C0F221F06000C4F222F06000C8F2BC
:1007D80023F072EC0EF0600070F0ABF0600074F083
:1007E800ACF0600078F0ADF060007CF0AEF0600036
:1007F80024F2BDF0600028F2BEF060002CF2BFF0D9
:10080800600030F2C0F0650E0001A719D8B407D017
:100818006000E4F29FF06000E8F2A0F004D0000E5F
:10082800A06F000E9F6F000E9C6F000E9B6F000E56
:100838009A6F000E996F000EB46F000EB36FF9D067
:100848006000ACF21CF06000B0F21DF06000B4F281
:100858001EF06000B8F21FF06000F4F220F06000B3
:10086800F8F221F06000FCF222F0600000F323F0BF
:100878006FEC11F0600070F028F0600074F029F05F
:10088800600078F02AF060007CF02BF0C6EC12F0E3
:100898006000A0F0AFF06000A4F0B0F06000A8F035
:1008A800B1F06000ACF0B2F06000BCF21CF0600087
:1008B800C0F21DF06000C4F21EF06000C8F21FF024
:1008C800BFEC17F0600070F0A1F0600074F0A2F0C7
:1008D80035B80DD00001A151A211D8A408D0670ED7
:1008E800AA19D8B4A0AF03D0994B9A2B3AD00001DB
:1008F8009B519C11D8B4A0AF22D00B0EBB25D96E4A
:10090800010EBC21DA6E2E0EDF6EBB4BBC2BA80786
:10091800D8A0A907000E9C6F010E9B6F10D00B0E7C
:10092800BB25D96E010EBC21DA6E300EDF6EBB4BD3
:10093800BC2BA807D8A0A9079907D8A09A0799514E
:100948009A11D8A4ECD70B0EBB25D96E010EBC2189
:10095800DA6EA151300FDF6EBB4BBC2BA807D8A0B5
:10096800A9076000ACF26DF06000B0F26EF06000B4
:10097800B4F26FF06000B8F270F06000F4F220F0AA
:100988006000F8F221F06000FCF222F0600000F351
:1009980023F06000BCF21CF06000C0F21DF06000A3
:1009A800C4F21EF06000C8F21FF098EC0CF0600072
:1009B80070F071F0600074F072F0600078F073F01D
:1009C80060007CF074F0E5EC1CF06000B4F1ABF072
:1009D8006000B8F1ACF06000BCF1ADF06000C0F1AF
:1009E800AEF06000F4F21CF06000F8F21DF0600058
:1009F800FCF21EF0600000F31FF0000E206E000EE7
:100A0800216E200E226E410E236E6FEC11F06000F5
:100A180070F0BDF0600074F0BEF0600078F0BFF0D8
:100A280060007CF0C0F000019F07D8A0A007B34B7E
:100A3800B42B9D51B35DB451800A846F9E51800AD6
:100A48008459D8B008D0BCBFFBD6BC5104E14B0ECA
:100A5800BB5DD8A0F5D69B519C11D8B435A80AD057
:100A68000B0EBB25D96E010EBC21DA6E2E0EDF6E81
:100A7800BB4BBC2B0B0EBB25D96E010EBC21DA6E0D
:100A8800000EDF6E650EA719D8A4F7EF00F0000E70
:100A9800B46F4F0EB36F0B0EB325D96E010EB42190
:100AA800DA6E000EDF6E000EA46F000EA36FBAAFF1
:100AB80008D0000EA46F010EA36FB96DBA1FD8B08D
:100AC800BA2B000EA66F020EA56F31D0B307D8A0BF
:100AD800B4070B0EB325D96E010EB421DA6E60008F
:100AE800E4F21CF06000E8F21DF0000E1F6E0A0E22
:100AF8001E6EDDEC1BF01C50300FDF6E6000E4F260
:100B08001CF06000E8F21DF0000E1F6E0A0E1E6E4B
:100B180058EC1BF0600070F0B9F0600074F0BAF0A7
:100B28000001A507D8A0A607A807D8A0A907B9510A
:100B3800BA11D8A4CBD7A6BF05D0A651C7E1A50541
:100B4800D8B0C4D7B307D8A0B407A351A411D8A468
:100B580004D0000E946F2B0E03D0000E946F2D0E50
:100B6800936F0B0EB325D96E010EB421DA6E6000B7
:100B78004FF2DFFFA807D8A0A907B307D8A0B4078A
:100B8800BF0E846FFF0E856F8351866F876B84510C
:100B9800862785518723875106E11A0E865DD8B0CE
:100BA80002D0010E01D0000E976F986B97519811E3
:100BB800D8A404D0000E966F650E03D0000E966F71
:100BC800450E956F0B0EB325D96E010EB421DA6E62
:100BD800600057F2DFFFA807D8A0A9070B0EBB25B6
:100BE8001C6E010EBC211D6E0B0EB3251E6E010E70
:100BF800B4211F6E81EC1CF0F7EF00F060000FF3DA
:100C0800D9FF600013F3DAFF6F007BFFF6FF6F0078
:100C180077FFF7FF0800F550250AD8A41BD360001A
:100C28000FF3D9FF600013F3DAFFDE2A000EDD228E
:100C3800000E326E000E316E6000C4F035F06000B8
:100C4800C8F036F03368346860000FF3D9FF6000ED
:100C580013F3DAFF6F007BFFF6FF6F0077FFF7FFF4
:100C68000800F5502A0AD8A42DD060000FF3D9FF48
:100C7800600013F3DAFFDE2A000EDD22600017F3AE
:100C8800D9FF60001BF3DAFF6F007CFFC7F0020E8C
:100C9800DE266F007CFFC8F0000EDD2260001FF327
:100CA800D9FF600023F3DAFF6F0078FF31F06F009F
:100CB80074FF32F032AE4CD03580316C321ED8B071
:100CC800322A46D060000FF3D9FF600013F3DAFF31
:100CD8006F0078FF23F06F0074FF24F0C4EC13F06A
:100CE80060008CF031F0600090F032F009D06000C4
:100CF8000FF3D9FF600013F3DAFFDE2A000EDD22BE
:100D0800D00E0001C76FFF0EC86F60000FF3D9FF48
:100D1800600013F3DAFF6F007BFFF6FF6F0077FFC9
:100D2800F7FF0800F550C96FCA6BC751C927C851EA
:100D3800CA23CA5106E10A0EC95DD8B002D0010E15
:100D480001D0000ED36FD46BD351D411D8A4CFD710
:100D580060000FF3D9FF600013F3DAFF6F007BFF29
:100D6800F6FF6F0077FFF7FF0800F5502E0AD8A4AA
:100D78008AD0000E346E000E336E60000FF3D9FF78
:100D8800600013F3DAFFDE2A000EDD2260000FF3A5
:100D9800D9FF600013F3DAFF6F007BFFF6FF6F00E7
:100DA80077FFF7FF0800F5502A0AD8A426D060007C
:100DB8000FF3D9FF600013F3DAFFDE2A000EDD22FD
:100DC800600017F3D9FF60001BF3DAFF6F007CFFA8
:100DD800C7F0020EDE266F007CFFC8F0000EDD2291
:100DE80060001FF3D9FF600023F3DAFF6F0078FF7C
:100DF80033F06F0074FF34F046D060000FF3D9FF72
:100E0800600013F3DAFF6F0078FF23F06F0074FFC0
:100E180024F0C4EC13F060008CF033F0600090F024
:100E280034F009D060000FF3D9FF600013F3DAFF44
:100E3800DE2A000EDD22D00E0001C76FFF0EC86F3C
:100E480060000FF3D9FF600013F3DAFF6F007BFF38
:100E5800F6FF6F0077FFF7FF0800F550C96FCA6B00
:100E6800C751C927C851CA23CA5106E10A0EC95D2C
:100E7800D8B002D0010E01D0000ED56FD66BD55177
:100E8800D611D8A4CFD760000FF3D9FF600013F3B1
:100E9800DAFF6F007BFFF6FF6F0077FFF7FF0800B0
:100EA800F550226E236A15EC1DF022500001DD6F0B
:100EB800DD51D8B441D060000FF3D9FF600013F3BF
:100EC800DAFF6F0078FFC7F06F0074FFC8F0010EFB
:100ED800C727000EC82360001FF3F6FF600023F346
:100EE800F7FF0800F550226E236A15EC1DF022501A
:100EF8000001DE6FDE51D8B41FD060000FF3D9FFB8
:100F0800600013F3DAFF6F0078FFC7F06F0074FF1B
:100F1800C8F0020EC727000EC82360001FF3F6FFB3
:100F2800600023F3F7FF0800F550226E236A15ECE2
:100F38001DF022500001DF6F60000FF3D9FF600041
:100F480013F3DAFF6F007BFFF6FF6F0077FFF7FF01
:100F58000800F550640AD8B411D060000FF3D9FF27
:100F6800600013F3DAFF6F007BFFF6FF6F0077FF77
:100F7800F7FF0800F550690AD8A455D060000FF3B0
:100F8800D9FF600013F3DAFFDE2A000EDD226000CD
:100F980017F3D9FF60001BF3DAFF6F007CFFC7F07F
:100FA800020EDE266F007CFFC8F0000EDD22600016
:100FB8001FF3D9FF600023F3DAFF6F0078FFCBF04F
:100FC8006F0074FFCCF0000ECCBFFF0ECD6FCE6F5C
:100FD800CF6FD06FD16FD26F600004F36AF06000FA
:100FE80008F36BF060002CF36CF0600030F36DF0E8
:100FF800600034F36EF0600038F36FF060003CF38B
:1010080070F0600040F371F0600044F372F060002B
:1010180048F373F016EC10F06000A8F1C1F060001E
:10102800ACF1C2F01200660EDD19D8A459D06000E8
:101038000FF3D9FF600013F3DAFF6F007BFFF6FFB1
:101048006F0077FFF7FF08006F00D4FFE0F0600043
:101058000FF3D9FF600013F3DAFFDE2A000EDD225A
:10106800600017F3D9FF60001BF3DAFF6F007CFF05
:10107800C7F0040EDE266F007CFFC8F0000EDD22EC
:1010880060001FF3D9FF600023F3DAFF6F0078FFD9
:10109800D9F06F0078FFDAF06F0078FFDBF06F00AF
:1010A80078FFDCF0600004F37DF0600008F37EF068
:1010B800600064F37FF0600068F380F060006CF318
:1010C80081F0600070F382F0600080F383F056ECEA
:1010D80000F06000F4F1C1F06000F8F1C2F0120015
:1010E800DD0E1C6E000E1D6EFB0E1E6E7F0E1F6E3B
:1010F800000E216E020E206E88EC18F01C501D1098
:10110800D8A46DD060000FF3D9FF600013F3DAFFA5
:101118006F0078FFC7F06F0074FFC8F0010E000180
:10112800C727000EC82360001FF3F6FF600023F3F3
:10113800F7FF08006F00D4FFE0F0BF0EC76FFF0E87
:10114800C86F60000FF3D9FF600013F3DAFF6F0078
:101158007BFFF6FF6F0077FFF7FF0800F550C96FB8
:10116800CA6BC751C927C851CA23CA5106E11A0E0A
:10117800C95DD8B002D0010E01D0000ED76FD86B70
:10118800D751D811600017F3D9FF60001BF3DAFFBD
:101198006F007CFFC7F0040EDE266F007CFFC8F0EE
:1011A800000EDD2260001FF3D9FF600023F3DAFF91
:1011B8006F0078FFD9F06F0078FFDAF06F0078FFE2
:1011C800DBF06F0078FFDCF0020E60000FF3D9FF50
:1011D800600013F3DAFFDE26000EDD2263D760001D
:1011E8000FF3D9FF600013F3DAFF6F007BFFF6FF00
:1011F8006F0077FFF7FF0800F550250AD8A41BD029
:1012080060000FF3D9FF600013F3DAFFDE2A000E47
:10121800DD22000E1D6E250E1C6E600004F31EF00C
:10122800600008F31FF045EC19F0000E0001C26FD2
:10123800010EC16F120060000FF3D9FF600013F3B5
:10124800DAFFDE2A000EDD22000E0001C26F000E5A
:10125800C16F120060000FF3D9FF600013F3DAFFCB
:101268006F007BFFF6FF6F0077FFF7FF0800F55070
:101278001C6E1D6A600004F31EF0600008F31FF086
:1012880045EC19F060000FF3D9FF600013F3DAFFA3
:10129800DE2A000EDD22C9D7600E3901D96F4CEC69
:1012A8001CF049EC1EF03A01409140934095010E24
:1012B800C06FC280C282C28439019181A191D2805B
:1012C800D28CD28ED29A95819593300EB212B28476
:1012D800B282060EB56E000EB16E000EB06ED28EE2
:1012E800C3903A015091CB80CDEC1AF0FAD260004D
:1012F80028F441F0426A0101AB05AC11D8A421D011
:10130800000E096F000E086F000EAC6F000EAB6F79
:101318009FEC1EF0010E1F6E010E9CEC19F0990E49
:10132800226E7E0E236E9CEC1BF0010E1F6E020EC9
:101338009CEC19F00F0E226E7F0E236E9CEC1BF0B6
:10134800D0D23AEC1AF0CAB4CCD201010851091132
:10135800D8A402D0010E01D0040E0A6F000EAC6FA3
:10136800010EAB6FCAB4BDD2FDD7600028F441F0BE
:10137800426A0101AB05AC11D8A421D0000E096F57
:10138800010E086F000EAC6F000EAB6F9FEC1EF0E5
:10139800010E1F6E010E9CEC19F0530E226E7F0E8B
:1013A800236E9CEC1BF0010E1F6E020E9CEC19F0D4
:1013B800630E226E7F0E236E9CEC1BF092D23AECE9
:1013C8001AF0CAB48ED2010108510911D8A402D06A
:1013D800020E01D0000E0A6F000EAC6F010EAB6F4B
:1013E800CAB47FD2FDD7600028F441F0426A0101F7
:1013F800AB05AC11D8A41DD0000EAC6F000EAB6FBE
:101408009FEC1EF0010E1F6E010E9CEC19F0FC0EF5
:10141800226E7E0E236E9CEC1BF0010E1F6E020ED8
:101428009CEC19F0C50E226E7F0E236E9CEC1BF00F
:1014380058D206050711D8A40BD0000E076F000E6E
:10144800066F000EAC6F010EAB6F030E0A6F49D228
:10145800020E06190711D8A444D2000E076F000E19
:10146800066F000EAC6F010EAB6F040E0A6F6000C2
:1014780028F441F0426A9FEC1EF0010E1F6E010E27
:101488009CEC19F0210E226E7F0E236E9CEC1BF053
:10149800A30E0001F26F570EF16F020EE82EFED771
:1014A800F12FFCD7F22FFAD700F01BD2600028F4F6
:1014B80041F0426A0101AB05AC11D8A421D0000E5D
:1014C800096F000E086F000EAC6F000EAB6F9FEC3B
:1014D8001EF0010E1F6E010E9CEC19F0430E226ED9
:1014E8007F0E236E9CEC1BF0010E1F6E020E9CEC0F
:1014F80019F0AA0E226E7F0E236E9CEC1BF0F1D120
:101508003AEC1AF0CAB4EDD1010108510911D8A476
:1015180002D0010E01D0000E0A6F000EAC6F010E52
:10152800AB6FCAB4DED1FDD7600028F441F0426A3F
:101538000101AB05AC11D8A421D0000E096F010E32
:10154800086F000EAC6F000EAB6F9FEC1EF0010E23
:101558001F6E010E9CEC19F0AE0E226E7E0E236EED
:101568009CEC1BF0010E1F6E020E9CEC19F0630E32
:10157800226E7F0E236E9CEC1BF0B3D13AEC1AF06E
:10158800CAB4AFD1010108510911D8A402D0050E7F
:1015980001D0000E0A6F000EAC6F010EAB6FCAB41B
:1015A800A0D1FDD7600028F441F0426A0101AB05E3
:1015B800AC11D8A428D0000EAC6F000EAB6F9FEC16
:1015C8001EF0010E1F6E010E9CEC19F09E0E226E8D
:1015D8007F0E236E9CEC1BF0010E1F6E020E9CEC1E
:1015E80019F0C50E226E7F0E236E9CEC1BF0010EC7
:1015F8001F6E030E9CEC19F0900E226E7F0E236E68
:101608009CEC1BF06ED1650E0001E96F010EEA6FCC
:10161800F70EEB6F7F0EEC6F6F00C0FEEDF0EE6B18
:10162800B4EC1CF0010E1F6E040E9CEC19F0600067
:1016380010F41CF0600014F41DF0000E1F6E140E60
:101648001E6E62EC1EF08C0E1C24226E020E1D20F3
:10165800236E9CEC1BF0CAB450D0B280320EB16439
:1016680040D1000E01010A6F000EAC6F010EAB6F86
:101678009FEC1EF0010E1F6E010E9CEC19F0C20EBD
:10168800226E7E0E236E9CEC1BF02FD0790E00018B
:10169800E96F010EEA6FF70EEB6F7F0EEC6F6F00CC
:1016A800C0FEEDF0EE6BB4EC1CF0640EB1641DD01E
:1016B800070E01010A6F9FEC1EF0010E1F6E010E4E
:1016C8009CEC19F0E90E226E7E0E236E9CEC1BF04A
:1016D800010E1F6E020E9CEC19F0320E226E7F0E68
:1016E800236E9CEC1BF0CAA4FED7CAA4CFD7B29035
:1016F800000EB16E000EB06EF4D0B290000EB06E57
:10170800000EB16EEED0600028F441F0426A01018B
:10171800AB05AC11D8A41DD0000EAC6F000EAB6F9A
:101728009FEC1EF0010E1F6E010E9CEC19F0810E4D
:10173800226E7F0E236E9CEC1BF0010E1F6E020EB4
:101748009CEC19F0B50E226E7F0E236E9CEC1BF0FC
:10175800C8D0A10E0001E96F010EEA6FCB0EEB6F46
:101768007F0EEC6F000EED6F000EEE6F000EEF6F48
:10177800000EF06FB4EC1CF00A0E1F6E020E9CEC0B
:1017880019F0A10E226E010E236E9CEC1BF0010EC7
:101798001F6E030E9CEC19F06000A4F61CF06000AC
:1017A800A8F61DF0000E1F6E140E1E6E62EC1EF0E1
:1017B800000E1C24226E020E1D20236E9CEC1BF0D2
:1017C80090D0600028F441F0426A0101AB05AC11E9
:1017D800D8A428D0000EAC6F000EAB6F9FEC1EF0A3
:1017E800010E1F6E010E9CEC19F0720E226E7F0E18
:1017F800236E9CEC1BF0010E1F6E020E9CEC19F080
:10180800C50E226E7F0E236E9CEC1BF0010E1F6E20
:10181800030E9CEC19F0900E226E7F0E236E9CEC4A
:101828001BF05FD08D0E0001E96F010EEA6FF70E15
:10183800EB6F7F0EEC6F6F00C0FEEDF0EE6BB4EC5B
:101848001CF0010E1F6E040E9CEC19F0600010F4E1
:101858001CF0600014F41DF0000E1F6E140E1E6EB6
:1018680062EC1EF08C0E1C24226E020E1D20236ECC
:101878009CEC1BF0CAB441D7B280320EB16431D0AF
:10188800000E01010A6F000EAC6F010EAB6F9FECEA
:101898001EF0010E1F6E010E9CEC19F0C20E226E96
:1018A8007E0E236E9CEC1BF0CAA4FED720D76000E6
:1018B80028F441F0426A0101AB05AC11D8A411D05B
:1018C800000EAC6F000EAB6F9FEC1EF0010E1F6E8A
:1018D800010E9CEC19F0D60E226E7E0E236E9CEC47
:1018E8001BF001010A510001F16FF26BF251000A7D
:1018F800D8A4DDD7F151000AD8B4F9D4010AD8B474
:1019080034D5030AD8B46FD5010AD8B4CFD5070A9D
:10191800D8B40AD6010AD8B445D6030AD8B4F3D63F
:10192800010AD8B44ED7C3D71F50800B0001606F8F
:101938001F501F24666F1EBE66816651D8B40DD035
:101948006629D8A408D0000E1C6E000E1D6E000E6D
:101958001E6E000E1F6E1E8E08D0000E1C6E000E2E
:101968001D6E000E1E6E000E1F6E2350800B601B36
:1019780023502324616F22BE61816151D8B40DD0F8
:101988006129D8A408D0000E206E000E216E000E2A
:10199800226E000E236E228E08D0000E206E000EDE
:1019A800216E000E226E000E236E6151D8B403D052
:1019B8006651D8A409D0000E1C6E000E1D6E000ED4
:1019C8001E6E000E1F6E120022501C026F00CCFF0C
:1019D8006BF06F00D0FF6CF06B51626F636B646BE0
:1019E800656B6C51676F686B696B6A6B21501D0280
:1019F8006F00CCFF6BF06F00D0FF6CF06B5162276B
:101A0800000E6323642365236C516727000E682347
:101A180069236A2320501E026F00CCFF6BF06F0011
:101A2800D0FF6CF06B516227000E6323642365239B
:101A38006C516727000E682369236A23600090F1C0
:101A480065F060008CF164F0600088F163F0626B0F
:101A580020501D026F00CCFF6BF06F00D0FF6CF0C0
:101A68006B5162276C516323000E6423000E6523BB
:101A780021501C026F00CCFF6BF06F00D0FF6CF0A0
:101A88006B5162276C516323000E6423000E65239B
:101A9800600090F165F060008CF164F0600088F1FE
:101AA80063F0626B20501C026F00CCFF6BF06F007C
:101AB800D0FF6CF06B5162276C516323000E6423D6
:101AC800000E652322501D026F00CCFF6BF06F00E3
:101AD800D0FF6CF06B5167276C516823000E6923A7
:101AE800000E6A2321501E026F00CCFF6BF06F00BE
:101AF800D0FF6CF06B5167276C516823000E692387
:101B0800000E6A2322501E026F00CCFF6BF06F009C
:101B1800D0FF6CF06B51246E6C51256E266A276AD3
:101B2800600098F027F0600094F026F0600090F0D4
:101B380025F0246A245067272550682326506923F6
:101B480027506A23600088F124F060008CF125F0AA
:101B5800600090F126F0600094F127F0190E05D08E
:101B6800D8902732263225322432E82EF9D724504D
:101B78006727255068232650692327506A23600069
:101B880090F165F060008CF164F0600088F163F01A
:101B9800626B6151600098F124F0256A2426000EDA
:101BA8002522820E24246B6FFF0E25206C6F0FD028
:101BB800D8906737683769376A3765BF6781D890C3
:101BC80062376337643765376B07D8A06C0769AF2E
:101BD800EFD7000E616F65AF17D0FF0E6215246E48
:101BE800FF0E6315256EFF0E6415266E7F0E6515B4
:101BF800276E2450251026102710D8B403D0010EC4
:101C0800616F02D067B1FBD76151D8B427D0010EFC
:101C18006727000E682369236A236AA11FD0600022
:101C28009CF124F06000A0F125F06000A4F126F0FA
:101C38006000A8F127F027342732263225322432D3
:101C4800600090F067F0600094F068F0600098F031
:101C580069F060009CF06AF06B4B6C2B6CBF0DD088
:101C68006C5103E16B29D8A008D0000E676F000EF5
:101C7800686F800E696F7F0E21D06CBF05D06C51E4
:101C88000EE16B05D8B00BD0000E676F000E686FC1
:101C9800000E696F000E6A6F000E606F10D0600052
:101CA800ACF166F0FF0E6717FF0E68177F0E691715
:101CB800000E6A1766B1698FD89066316A6F6051F5
:101CC8006A1360009CF11CF06000A0F11DF0600038
:101CD800A4F11EF06000A8F11FF012001F50800B45
:101CE800286E1F501F242A6E1EBE2A802A50D8B480
:101CF8000DD02A28D8A408D0000E1C6E000E1D6E28
:101D0800000E1E6E000E1F6E1E8E06D0000E1C6E7C
:101D1800000E1D6E000E1E6E000E1F6E2350800BEF
:101D2800296E28502918D8A4288C23502324296EDA
:101D380022BE29802950D8B40DD02928D8A408D08B
:101D4800000E206E000E216E000E226E000E236E15
:101D5800228E06D0000E206E000E216E000E226E1E
:101D6800000E236E2A50295CD8B031D028AC02D09E
:101D7800800E281A6000A8F02BF06000A4F02AF06A
:101D88006000ACF029F0600070F02BF0600080F08B
:101D98001CF06000ACF020F0600074F02BF06000E4
:101DA80084F01DF06000ACF021F0600078F02BF0BA
:101DB800600088F01EF06000ACF022F060007CF05B
:101DC8002BF060008CF01FF06000ACF023F0000EE8
:101DD8002B6E2A506000A4F024F0256A245E000EC1
:101DE800255A25BE2DD0255004E11A0E245CD8A012
:101DF80027D01C501D101E101F10D8B402D0010E81
:101E080001D0000E2B6E000E1C6E000E1D6E000E13
:101E18001E6E000E1F6E6000A4F02AF015D02BA0D5
:101E280005D0D8902B3001092B6E02D0D8902B32D8
:101E38001CB02B8E1F341F321E321D321C322A2A30
:101E480029502A5CD8A0EBD728BC28D02A50D8A47F
:101E580009D0000E1C6E000E1D6E000E1E6E000EC8
:101E68001F6E120020501C2621501D2222501E22B7
:101E780023501F221FA071D02BA005D0D8902B3043
:101E880001092B6E02D0D8902B321CB02B8E1F3438
:101E98001F321E321D321C322A2A5FD020501C5C91
:101EA80021501D5822501E581F50800A246E23505E
:101EB800800A2458D8B025D01C50205C246E1D50B0
:101EC8002158256E1E502258266E1F502358276E03
:101ED800FF0E24241C6EFF0E25201D6EFF0E2620EB
:101EE8001E6EFF0E27201F6E800E281A2B6C2B509B
:101EF800D8A40FD0010E1C26000E1D221E221F2260
:101F080008D020501C5E21501D5A22501E5A2350C2
:101F18001F5A1C501D101E101F10D8A41CD02B5067
:101F2800D8A419D0000E1C6E000E1D6E000E1E6E79
:101F3800000E1F6E1200D8901C361D361E361F3636
:101F48002BBE1C802BA002D0D88001D0D8902B3675
:101F58002A50D8A42A061EAEEED7000E296E2BAE44
:101F68000CD06000ACF024F07F0E2416D8B403D057
:101F7800010E296E02D01CB0FBD72950D8B428D046
:101F8800010E1C26000E1D221E221F221FA020D07B
:101F9800600070F024F0600074F025F0600078F0C4
:101FA80026F060007CF027F02734273226322532CD
:101FB8002432600090F01CF0600094F01DF0600086
:101FC80098F01EF060009CF01FF02A28D8A42A2A56
:101FD8002A28D8B403D02A50D8A40DD0000E1C6EDD
:101FE800000E1D6E000E1E6E000E1F6E2A50D8A425
:101FF80002D0000E286E2AA002D01E8E01D01E9E8E
:10200800D8902A301F6E28BE1F8E600070F01CF01A
:10201800600074F01DF0600078F01EF060007CF045
:102028001FF012006000B0F184F06000B4F185F098
:102038006000B8F186F06000BCF187F06000C0F184
:1020480088F06000C4F189F06000C8F18AF060008F
:10205800CCF18BF000018BAF02D0010E01D0000E45
:10206800826F836B82518311D8B410D08B1F8A1F63
:10207800891F881F871F861F851F846D000E852373
:1020880086238723882389238A238B2334AE35929A
:1020980034BE05D0345008E13304D8B005D0000E62
:1020A8007F6F010E7E6F06D06000CCF07EF060007E
:1020B800D0F07FF06000C4F080F06000C8F081F0DC
:1020C80082518311D8A402D035A403D08007D8A0A8
:1020D8008107000E8D6F4F0E8C6F000E01015A6F35
:1020E8009FD08C07D8A08D070B0E8C25D96E010EBA
:1020F8008D21DA6E600010F21CF0600014F21DF001
:10210800600018F21EF060001CF21FF0600020F260
:1021180020F0600024F221F0600028F222F0600034
:102128002CF223F00A0E246E000E256E000E266E89
:10213800000E276E000E286E000E296E000E2A6E05
:10214800000E2B6EDAEC15F0600070F074F0600091
:1021580074F075F0600078F076F060007CF077F04D
:10216800600080F078F0600084F079F0600088F01A
:102178007AF060008CF07BF06000D0F162F06000D3
:10218800D8F163F086EC1DF000016251300FDF6E6C
:102198007E07D8A07F078007D8A08107600010F2CB
:1021A8001CF0600014F21DF0600018F21EF06000D0
:1021B8001CF21FF0600020F220F0600024F221F0F1
:1021C800600028F222F060002CF223F00A0E246E40
:1021D800000E256E000E266E000E276E000E286E6D
:1021E800000E296E000E2A6E000E2B6E2DEC15F0D7
:1021F800600070F084F0600074F085F0600078F0A2
:1022080086F060007CF087F0600080F088F0600065
:1022180084F089F0600088F08AF060008CF08BF020
:1022280000018DBF1FD08D5103E18C05D8A01AD0B5
:102238008451851186118711881189118A118B1192
:10224800D8A44FD77FBF05D07F5102E17E05D8B013
:1022580048D781BF07D0815103E18005D8A002D0BB
:1022680035B23FD782518311D8A402D035A418D0F3
:102278008C07D8A08D0782518311D8A404D0000EF2
:102288007D6F2B0E03D0000E7D6F2D0E7C6F0B0E15
:102298008C25D96E010E8D21DA6E6000F3F1DFFF17
:1022A8006000A8F160F06000ACF161F00B0E8C25C5
:1022B800626F010E8D21636F600000F264F06000B0
:1022C80004F265F0E9EC18F0600080F16AF0600053
:1022D80084F16BF012001F50800B0001646F1F50D7
:1022E8001F246B6F1EBE6B816B51D8B40DD06B2948
:1022F800D8A408D0000E1C6E000E1D6E000E1E6EB7
:10230800000E1F6E1E8E06D0000E1C6E000E1D6E77
:10231800000E1E6E000E1F6E2350800B641B235090
:1023280023246C6F22BE6C816C51D8B40DD06C29FB
:10233800D8A408D0000E206E000E216E000E226E6A
:10234800000E236E228E06D0000E206E000E216E27
:10235800000E226E000E236E205021102210231032
:10236800D8A41BD0000E1C6E000E1D6E000E1E6E33
:10237800000E1F6E800E1E127F0E1F1264511F1258
:10238800600070F01CF0600074F01DF0600078F0E0
:102398001EF060007CF01FF012006B51D8A409D029
:1023A800000E1C6E000E1D6E000E1E6E000E1F6EBF
:1023B80012006C516000ACF124F0256A245E000E16
:1023C800255A7F0E2424656F000E2520666F600055
:1023D80070F060F0600074F061F0600078F062F016
:1023E80060007CF063F0000E1C6E000E1D6E000E87
:1023F8001E6E000E1F6E000E676F000E686F000ED7
:10240800696F000E6A6F000E6C6F28D06C51D8B4DB
:1024180011D0D8906037613762376337D8901C364F
:102428001D361E361F366ABF1C80D890673768373E
:1024380069376A372050605D2150615922506259CE
:1024480023506359D8A009D06A8D2050605F21506D
:10245800615B2250625B2350635B6C2B190E6C65C9
:10246800D5D76051611162116311D8B411D0678159
:102478000FD0D8901C361D361E361F366ABF1C80FA
:10248800D8906737683769376A376507D8A066070D
:102498001EAEEFD7000E6C6F6AAF17D0FF0E671530
:1024A800246EFF0E6815256EFF0E6915266E7F0EC9
:1024B8006A15276E2450251026102710D8B403D08B
:1024C800010E6C6F02D01CB0FBD76C51D8B427D06A
:1024D800010E1C26000E1D221E221F221FA01FD027
:1024E800600070F024F0600074F025F0600078F06F
:1024F80026F060007CF027F0273427322632253278
:102508002432600090F01CF0600094F01DF0600030
:1025180098F01EF060009CF01FF0654B662B66BFBC
:1025280010D0665103E16529D8A00BD0000E666F64
:102538006569000E1C6E000E1D6E000E1E6E000EEC
:102548001F6E66BF05D0665111E16505D8B00ED083
:10255800000E666F000E656F000E1C6E000E1D6E7D
:10256800000E1E6E000E1F6E000E646F600094F168
:102578006BF06BA102D01E8E01D01E9ED8906B31DD
:102588001F6EFCD66000CCF379F06000D0F37AF0CF
:102598006000D4F37BF06000D8F37CF06000A0F01A
:1025A80079F06000A4F07AF06000A8F07BF0600099
:1025B800ACF07CF0810E00016D6FFF0E6E6F600055
:1025C800E4F16FF06000E8F170F06000ECF171F098
:1025D8006000F0F172F0180E05D0D89072337133A4
:1025E80070336F33E82EF9D76F516D25776F000E72
:1025F8006E21786F78BF13D0785104E1170E775D9C
:10260800D8A00DD06000A0F028F06000A4F029F058
:102618006000A8F02AF06000ACF02BF0120078BF40
:1026280068D06000DCF16DF0FF0E6E6FFF0E6F6F0B
:102638007F0E706F000E716F6D6701D007D0713516
:10264800713370336F336E336D2FF6D76000B8F186
:1026580073F06000BCF174F06000C0F175F06000C8
:10266800C4F176F00001735179156D6F74517A15C4
:102678006E6F75517B156F6F76517C15706F6D514C
:102688006E116F117011D8B4BDD76000E4F16DF010
:102698006000E8F16EF06000ECF16FF06000F0F1BE
:1026A80070F0200E05D0D89070336F336E336D33D1
:1026B800E82EF9D76D516E116F117011D8B408D08A
:1026C8007351792774517A2375517B2376517C2372
:1026D800731D6D6F741D6E6F751D6F6F761D706F36
:1026E8006D5179176E517A176F517B1770517C179E
:1026F8003AD06000E4F16DF06000E8F16EF060003F
:10270800ECF16FF06000F0F170F0200E05D0D89079
:1027180070336F336E336D33E82EF9D76D516E1108
:102728006F117011D8A408D0000E796F000E7A6F5F
:10273800000E7B6F000E16D0D89079356D6F7A3504
:102748006E6F7B356F6F7C35706F6D516E116F11C9
:102758007011D8B408D0000E796F000E7A6F800E11
:102768007B6FBF0E7C6F6000E4F128F06000E8F139
:1027780029F06000ECF12AF06000F0F12BF0120073
:10278800000E0001686F000E676F000E616F000E8B
:10279800606F02D0234A242A010E666F60008FF012
:1027A800F6FF600093F0F7FF0800F550200AD8B450
:1027B8001AD0F70E256EFF0E266E60008FF0F6FF1A
:1027C800600093F0F7FF0800F550276E286A25503F
:1027D800272626502822285004E1050E275CD8A079
:1027E80002D0000E666F600098F162F0636B625170
:1027F8006311D8B408D0CED7000E616F010E606F98
:10280800234A242A35D060008FF0F6FF600093F049
:10281800F7FF0800F550256E266A2650000AD8A44E
:1028280027D025502B0AD8B4EBD7060AD8B4E4D75A
:102838001FD060009CF11CF06000A0F11DF0000E9C
:102848001F6E0A0E1E6E62EC1EF060008FF0F6FF1F
:10285800600093F0F7FF0800F5501C5E000E1D5A4B
:10286800300E1C240001676F000E1D20686FC8D74A
:10287800D00E256EFF0E266E60008FF0F6FF60000A
:1028880093F0F7FF0800F550276E286A2550272691
:1028980026502822285006E10A0E275CD8B002D01C
:1028A800010E01D0000E646F656B64516511D8A4E8
:1028B800C0D760516111D8A411D060009CF125F0F7
:1028C8006000A0F126F0251E261E254A262A600053
:1028D80094F023F0600098F024F0120060009CF15E
:1028E80023F06000A0F124F01200494E4954202042
:1028F8002020202020202020202020202000534598
:102908004C465F544553542020202020202020206E
:10291800200052554E20202020202020202020203A
:1029280020202020200052554E5F534C4F57202026
:102938002020202020202020200041564F49445F9D
:102948005045524920202020202020202000545289
:10295800595F4C454654202020202020202020204C
:1029680020005452595F52494748542020202020C3
:102978002020202020005452595F494E535445418D
:10298800445F4C454654202020005452595F494E1C
:1029980053544541445F52494748542020005452FB
:1029A800595F4C4153545F54494D455F4C4546541B
:1029B80020005452595F4C4153545F54494D455F70
:1029C8005249474854005452595F4241434B57417A
:1029D80052442020202020202000535455434B20CF
:1029E80020202020202020202020202020004649B0
:1029F8004E445F504552494D4554455220202020B1
:102A0800200052414E444F4D5F5455524E202020D5
:102A180020202020200052455455524E5F484F4DEB
:102A280045202020202020202000434841524749AB
:102A38004E47202020202020202020202000534501
:102A480052524F52202020202020202020202020B9
:102A58002000000E0001616F2BAE12D02B1E2A1E23
:102A6800291E281E271E261E251E246C000E252220
:102A780026222722282229222A222B22010E616FB0
:102A880023AE12D0231E221E211E201E1F1E1E1E14
:102A98001D1E1C6C000E1D221E221F222022212218
:102AA80022222322010E611B20EE62F0070EDE6A4D
:102AB800E806FDE2245025102610271028102910BA
:102AC8002A102B10D8B446D0010E606F0AD0D890C7
:102AD8002436253626362736283629362A362B3602
:102AE800602B2BAEF4D7D8906237633764376537DD
:102AF800663767376837693724501C5C25501D587E
:102B080026501E5827501F58285020582950215801
:102B18002A5022582B502358D8A011D024501C5E7C
:102B280025501D5A26501E5A27501F5A2850205AE1
:102B38002950215A2A50225A2B50235A6281D89060
:102B48002B322A32293228322732263225322432B1
:102B5800602FC9D76151D8B410D0691F681F671F8B
:102B6800661F651F641F631F626D000E6323642365
:102B780065236623672368236923600088F11CF0B6
:102B880060008CF11DF0600090F11EF0600094F17F
:102B98001FF0600098F120F060009CF121F06000C7
:102BA800A0F122F06000A4F123F01200000E000151
:102BB800616F23AE12D0231E221E211E201E1F1E4F
:102BC8001E1E1D1E1C6C000E1D221E221F222022EE
:102BD800212222222322010E616F2BAE10D02B1E40
:102BE8002A1E291E281E271E261E251E246C000E9E
:102BF800252226222722282229222A222B22245053
:102C0800251026102710281029102A102B10D8B4A8
:102C18003CD0010E606F0AD0D8902436253626366F
:102C28002736283629362A362B36602B2BAEF4D792
:102C380024501C5C25501D5826501E5827501F58DC
:102C480028502058295021582A5022582B502358B0
:102C5800D8A010D024501C5E25501D5A26501E5A4C
:102C680027501F5A2850205A2950215A2A50225A90
:102C78002B50235AD8902B322A3229322832273225
:102C8800263225322432602FD3D76151D8B410D0E0
:102C9800231E221E211E201E1F1E1E1E1D1E1C6CF2
:102CA800000E1D221E221F22202221222222232240
:102CB800600070F01CF0600074F01DF0600078F0A7
:102CC8001EF060007CF01FF0600080F020F06000D3
:102CD80084F021F0600088F022F060008CF023F08E
:102CE80012006000B4F026F06000B8F027F0600031
:102CF800BCF028F06000C0F029F0600070F026F009
:102D0800600074F027F0600078F028F060007CF034
:102D180029F0600098F020F060009CF021F060003D
:102D2800A0F022F06000A4F023F0180E05D0D8908F
:102D38002332223221322032E82EF9D72050246E55
:102D4800256A24502510D8A419D0D8902634206E8E
:102D58002734216E2834226E2934236E2050211006
:102D680022102310D8A405D0000E1D6E020E1C6E72
:102D78001200000E1D6E030E1C6E12002428251072
:102D8800D8A420D0600098F020F060009CF021F0DA
:102D98006000A0F022F06000A4F023F0090ED890A3
:102DA8002036213622362336E82EF9D72050211036
:102DB80022102310D8A402D0010E01D0000E1C6EE0
:102DC8001D6A1200000E1D6E040E1C6E12003701E3
:102DD800E097F10E8F16030EE013600013F0D9FF91
:102DE800600017F0DAFFDF50E66F20EE02F00450C3
:102DF800D9260550DA22DF50E76F20EE04F00450A0
:102E0800D9260550DA22DF50E86F20EE06F004508C
:102E1800D9260550DA22DF50E96F20EE08F0045079
:102E2800D9260550DA22DF50EA6F20EE0AF0045066
:102E3800D9260550DA22DF50EB6F20EE0CF0045053
:102E4800D9260550DA22DF50EC6F20EE0EF0045040
:102E5800D9260550DA22DF50ED6F600008F008F03F
:102E6800083A0846E25108181F0B0818E26F60007C
:102E780008F008F060000CF009F009340932083253
:102E88000934093208320934093208320850E16F2E
:102E9800E5510618F00B0618E56FE59DE087E0B7E9
:102EA8001200FDD7000E00016D15286E000E6E157C
:102EB800296E800E6F152A6E7F0E70152B6E2850A6
:102EC80029102A102B10D8A408D0000E6D6F000E00
:102ED8006E6F000E6F6F000E706F000E7115286E0A
:102EE800000E7215296E800E73152A6E7F0E7415EA
:102EF8002B6E285029102A102B10D8A408D0000EA9
:102F0800716F000E726F000E736F000E746F70AFEA
:102F180009D06D6D6E1FD8B06E2B6F1FD8B06F2B98
:102F2800800E705774AF09D0716D721FD8B0722BB4
:102F3800731FD8B0732B800E7457000E6D1B000ED4
:102F48006E1B000E6F1B800E701B000E711B000E97
:102F5800721B000E731B800E741B71516D5D7251D4
:102F68006E5973516F5974517059D8B002D0D890B6
:102F78001200D88012001E341F34256E2550D8A4A4
:102F880009D0000E1C6E000E1D6E000E1E6E000E87
:102F98001F6E1200600070F020F0600074F021F0E5
:102FA800600078F022F060007CF023F0200E05D05D
:102FB800D8902332223221322032E82EF9D72050FD
:102FC800246E1E8EFF0E1C16FF0E1D16FF0E1E16FB
:102FD800000E1F16960E255E25AE0DD02550800AD0
:102FE800970FD8A0CED7D8901F321E321D321C3270
:102FF800253EF9D70DD01F0E256407D0C2D7D8902B
:103008001C361D361E361F3625062550D8A4F7D780
:103018002450D8B408D01F1E1E1E1D1E1C6C000E86
:103028001D221E221F22600070F01CF0600074F048
:103038001DF0600078F01EF060007CF01FF01200B8
:10304800F20EF66E280EF76E000EF86E00EE8CF299
:1030580010EE68F109006F00D7FFEEFFE550E15070
:10306800F9E1E250F7E10E0EF66E350EF76E000E3E
:10307800F86E00EE00F210EE8CF009006F00D7FF3A
:10308800EEFFE550E150F9E1740EF66E3D0EF76E75
:10309800000EF86E00EEA9F110EE04F009006F00C2
:1030A800D7FFEEFFE550E150F9E1700EF66E3D0EE8
:1030B800F76E000EF86E00EE41F010EE04F0090015
:1030C8006F00D7FFEEFFE550E150F9E100EE00F1A7
:1030D8005B0EEE6AE806FDE10001F86BF76BF66B34
:1030E800F56BF46BF36B00EE2DF0140EEE6AE80648
:1030F800FDE1080ED56E000ED66E000ED76E000EDE
:10310800F86E000150EF09F0600070F023F06000E5
:1031180074F024F0600078F025F060007CF026F070
:103128002006D8A0210620280FE12128D8A40CD0F9
:10313800000E1D6E000E1C6E1200234A242A254A1A
:10314800262A2006D8A0210660008FF0D9FF60004B
:1031580093F0DAFFDF50D8B422D0600097F0F6FF82
:1031680060009BF0F7FF0800F5500009D8B417D0AD
:1031780020502110D8B413D060008FF0D9FF600020
:1031880093F0DAFFDF50226E600097F0F6FF6000E0
:103198009BF0F7FF0800F5502218D8B4CED760008E
:1031A8008FF0D9FF600093F0DAFFDF50226E6000E5
:1031B80097F0F6FF60009BF0F7FF0800F550225CDF
:1031C8001C6E1D6AD8A01D06120035A00ED0600026
:1031D80088F125F060008CF126F0600080F127F07E
:1031E800600084F128F0A6EC1DF0000165BF07D04F
:1031F800600090F168F0600094F169F004D0000E6E
:10320800696F000E686F000E676F000E666F0FD053
:10321800000E1D6E200E1C6E600080F11EF0600016
:1032280084F11FF045EC19F00001664B672B6851DB
:10323800665D6751800A2C6E6951800A2C58D8A0A7
:10324800E7D735B00ED0600088F125F060008CF12A
:1032580026F0600080F127F0600084F128F0A6ECE9
:103268001DF0600088F11CF060008CF11DF030EC5E
:103278001EF0000168511C24606F69511D20616FA8
:1032880012001E501F10D8B404D01E501F10D8A40E
:1032980004D01C50BCEC1EF0120020EE04F01E50AE
:1032A800D9261F50DA22DE50DE10D8B416D020EE10
:1032B80004F01E50D9261F50DA2210EE02F01E50DC
:1032C800E1261F50E222DE50E65CE650800A246EBA
:1032D800DE50800A2458D8B0120020EE02F01E50AA
:1032E800D9261F50DA226F0078FF20F06F0074FF94
:1032F80021F060007BF0D9FF60007FF0DAFF6F00FB
:1033080078FF22F06F0074FF23F020502224D96E3A
:1033180021502320DA6E600073F0DFFF20EE02F008
:103328001E50D9261F50DA22DE2A000EDD22120096
:10333800206E2004D8A410D01F507F0F236E23388E
:103348000F0B216E23500F0B226E21508FEC1EF0B5
:1033580022508FEC1EF01200020E2018D8A410D0B4
:103368001F50BF0F236E23380F0B216E23500F0BF6
:10337800226E21508FEC1EF022508FEC1EF01200AE
:10338800030E2018D8A410D01F50930F236E233893
:103398000F0B216E23500F0B226E21508FEC1EF065
:1033A80022508FEC1EF01200040E2018D8A4120030
:1033B8001F50D30F236E23380F0B216E23500F0B92
:1033C800226E21508FEC1EF022508FEC1EF012005E
:1033D80080BE31D048D0600004F10CF0600008F1E4
:1033E8000DF0000E036E000E026E0C0E046E000E41
:1033F800056E000E076E010E066EEBEC16F032D06D
:103408006F001CFE06F10101076B2CD0000E0101B4
:10341800AC6F010EAB6F6F001CFE0AF123D06F007A
:103428001CFE04F10101056B1DD06F001CFEA9F103
:103438000101AA6B17D086500A6E0B6A0B50000A5E
:10344800D8A410D00A50000AD8B4C5D7010AD8B4F5
:10345800D7D7030AD8B4DAD7010AD8B4E0D7070A0D
:10346800D8B4E3D7809E3901A59111003AD0020E55
:103478001F6E030E9CEC19F0D70E226E7F0E236E82
:103488009CEC1BF0020E1F6E040E9CEC19F0DD0E76
:10349800226E7F0E236E9CEC1BF01200020E1F6E34
:1034A800030E9CEC19F0BF0E226E7F0E236E9CEC6F
:1034B8001BF0020E1F6E040E9CEC19F0E20E226E39
:1034C8007F0E236E9CEC1BF01200010E1F6E030E84
:1034D8009CEC19F0D10E226E7F0E236E9CEC1BF033
:1034E8001200600020F428F0600024F429F029502C
:1034F800000AD8A4EAD72850000AD8B4B8D7010AD5
:10350800D8B4CCD7E2D74E4F5F43484152474552D3
:103518005F50524553454E542000464153545F4333
:103528004841524745202020202020202000544F89
:10353800505F4F46465F4348415247452020202070
:1035480020004348415247455F434F4D504C455436
:10355800452020202000434841524745525F4449B6
:103568005341424C4544202020004641554C5420AC
:103578002020202020202020202020202000554E00
:10358800444546494E454420202020202020202024
:103598002000000EC46EC3903A015091CB80000EFB
:1035A800606F000E79EC1EF0020E206EA00E1F6EEA
:1035B800920EE82EFED71F2EFCD7202EFAD700D069
:1035C800030E8FEC1EF0680E1F6EE40EE82EFED779
:1035D8001F2EFCD700D0030E8FEC1EF0E50E1F6ED9
:1035E800910EE82EFED71F2EFCD700F0030E8FECAD
:1035F8001EF0020E8FEC1EF0020E8FEC1EF0080E6D
:103608008FEC1EF0000E8FEC1EF00C0E8FEC1EF0EF
:10361800000E8FEC1EF0060E8FEC1EF01200000E4E
:103628001C14246E000E1D14256E800E1E14266EAA
:103638007F0E1F14276E2450251026102710D8A49B
:1036480008D0000E1C6E000E1D6E000E1E6E000EC1
:103658001F6E000E2014246E000E2114256E800E9D
:103668002214266E7F0E2314276E24502510261050
:103678002710D8A408D0000E206E000E216E000E70
:10368800226E000E236E20501C180AE121501D18CE
:1036980007E122501E1804E123501F18D8B402D0A5
:1036A800D8901200D8801200000E216E1FAE06D0EE
:1036B8001E6C1F1ED8B01F2A010E216E1DAE06D02B
:1036C8001C6C1D1ED8B01D2A010E211A000E236E77
:1036D800000E226E1E501F10D8B41CD0010E206E92
:1036E80004D0D8901E361F36202A1FAEFAD7D8909D
:1036F800223623361E501C5C1F501D58D8A005D0FA
:103708001E501C5E1F501D5A2280D8901F321E3238
:10371800202EEDD72150D8B404D0226C231ED8B067
:10372800232A600088F01CF060008CF01DF0120065
:10373800000E276E000E266E1ED026502224246E00
:1037480027502320256E600093F0F6FF600097F065
:10375800F7FFF86A070EF76403D00800F55007D0A2
:103768006F00DBFFE1FF6F00DFFFE2FFE750C5EC12
:103778001DF0264A272A26502224246E275023206B
:10378800256E600093F0F6FF600097F0F7FFF86A87
:10379800070EF76403D00800F55007D06F00DBFF71
:1037A800E1FF6F00DFFFE2FFE7500009D8B4120025
:1037B800C4D7000E216E1DAE06D01C6C1D1ED8B0DD
:1037C8001D2A010E216E1FAE04D01E6C1F1ED8B01C
:1037D8001F2A1E501F10D8B418D0010E206E04D016
:1037E800D8901E361F36202A1FAEFAD71E501C5CF2
:1037F8001F501D58D8A004D01E501C5E1F501D5AC3
:10380800D8901F321E32202EF1D72150D8B404D0C0
:103818001C6C1D1ED8B01D2A600070F01CF06000E2
:1038280074F01DF0120060008CF3E7F0600090F374
:10383800E8F0000E0001F86F000EF76F17D0600077
:1038480084F3C1F0600088F3C2F0E70EC36F000E86
:10385800C46F600094F3C5F0600098F3C6F002EC02
:1038680006F00001C151F727C251F82360009FF309
:10387800F6FF6000A3F3F7FF0800F5500009D8A48D
:10388800DED76000DCF3E1F06000E0F3E2F0120064
:10389800330E3A010A6FC394C386509550978F8EA2
:1038A8008F9C8F9A8E38E832070B040AD8A4FAD76F
:1038B80037010351C00B1F09036F000EA06FA15100
:1038C8001F0B4009A16FA197B869E00EB913809C3E
:1038D800808A8090A469E00EA513A597BC69E00EC4
:1038E800BD13F09DF08BF0911F0E8F168E38E832C5
:1038F800070B0009D8B41200F9D7600078F022F05D
:1039080060007CF023F0600070F024F0600074F038
:1039180025F02250206E2350216E224A232A60006F
:1039280083F0F6FF600087F0F7FFF86A600093F015
:10393800D9FF600097F0DAFF244A252A070EF764BA
:1039480003D00800F55007D06F00DBFFE1FF6F00E0
:10395800DFFFE2FFE750DF6EDF50D8B41200D9D79F
:10396800ED0E01015D6F000E5E6F6000A4F35FF164
:103978006000A8F360F1000E626F000E616F000E28
:10398800646F000E636F5F0E0001E16F010EE26F5E
:103998006000ACF3E3F06000B0F3E4F05D0EE56FB7
:1039A800010EE66F17EC1CF0010161510001E925D9
:1039B800D96E010162510001EA21DA6E000EDF6E54
:1039C8001200000E0001711B000E721B000E731B0B
:1039D800800E741B6000B4F11CF06000B8F11DF09B
:1039E8006000BCF11EF06000C0F11FF06000C4F17F
:1039F80020F06000C8F121F06000CCF122F06000F6
:103A0800D0F123F072EC0EF0600070F06DF0600001
:103A180074F06EF0600078F06FF060007CF070F089
:103A28001200BF0E246EFF0E256E600088F026F08F
:103A380060008CF027F02450262625502722275096
:103A480006E11A0E265CD8B002D0010E01D0000E95
:103A5800286E296A28502910D8B406D0200E2210C2
:103A6800226E2350236E1200600088F022F060005E
:063A78008CF023F01200A7
:103A8000CAA011D001010851375C3850800A016E7C
:103A90000951800A0158D8B014D00807D8A00907E6
:103AA000B3EC1EF00ED043500101085D0951800AAD
:103AB000016E4450800A0158D8B003D0084B092B3E
:103AC000EFD73901A1911100010E226E200E1C18B2
:103AD0001D10D8B416D0F70E1E6EFF0E1F6E6000BC
:103AE00070F020F0600074F021F01E5020261F506E
:103AF0002122215004E1050E205CD8A002D0000E46
:103B0000226E600088F01CF01D6A1200000163BF85
:103B100005D0635114E16205D8B011D0600088F17E
:103B200064F060008CF165F0641F651F644B652BC9
:103B3000600090F162F0600094F163F012006000A8
:103B400088F162F060008CF163F01200000E2B6EC1
:103B5000000E2A6E0ED06000A4F01CF01D6A6000FA
:103B60009CF01EF06000A0F01FF045EC19F02A4A0E
:103B70002B2A2A502524D96E2B502620DA6EDF50AE
:103B8000296E2950D8B41200E6D71F6E1F500F0BB4
:103B90001D6E1F50F00B1E6ECC801E380F0B79EC83
:103BA0001EF0CC82D50EE82EFED700F0CC921D5030
:103BB00079EC1EF0CC82D50EE82EFED700F0CC9228
:103BC00012001C501D101E101F10D8B408D0000E7B
:103BD0001C1A000E1D1A000E1E1A800E1F1A6000FD
:103BE00070F01CF0600074F01DF0600078F01EF0C2
:103BF00060007CF01FF01200BF0E1E6EFF0E1F6EE5
:103C0000600070F020F0600074F021F01E5020265B
:103C10001F502122215006E11A0E205CD8B002D09C
:103C2000010E01D0000E1C6E1D6A1200D00E1E6E19
:103C3000FF0E1F6E600070F020F0600074F021F045
:103C40001E5020261F502122215006E10A0E205C22
:103C5000D8B002D0010E01D0000E1C6E1D6A1200F9
:103C6000600070F01EF0600074F01FF002D01C4A7B
:103C70001D2A600073F0D9FF600077F0DAFFDF5093
:103C8000D8A4F5D71E501C5C1C6E1F501D581D6E0D
:103C900012003A015093C392CB82B88EB898F00EBE
:103CA000B816B9501F0BA009B96EB988B950F00BFE
:103CB0000909B96E000EB66E320EB76E3901938FD8
:103CC000A39F12001C501E026F00CCFF20F06F005B
:103CD000D0FF21F01C501F02F35021261D501E0260
:103CE000F3502126600080F01CF0600084F01DF08D
:103CF00012001C6E1CA002D0CC8401D0CC941CA25B
:103D000002D0CC8A01D0CC9A1CA402D0CC8C01D099
:103D1000CC9C1CA602D0CC8E1200CC9E12001E6E33
:103D2000CC901E5079EC1EF0CC82540E1D6E1C0EF1
:103D3000E82EFED71D2EFCD700D0CC921200000E2C
:103D40008FEC1EF0010E8FEC1EF01200000E010130
:0A3D5000096F08693901A5931100FD
:103D5C00CB92B89E3901A39F1100CB82B88E000E76
:0E3D6C00B66E120001000100060001001200F8
:023D7C00110034
:107E98000057656C636F6D6520746F20746865208A
:107EA800726F626F7400526F626F742077696C6CC6
:107EB800206D6F77696E6721210052656C6561736B
:107EC8006520666F72207265737461727400457202
:107ED800726F722073746174656D616368696E6531
:107EE8000052656C6561736520666F7220726574F7
:107EF80075726E00457865637574696E6720736581
:107F08006C66746573740045786563757465207371
:107F1800656C66746573743F0053656C667465734D
:107F28007420776173204F4B2100746F2063686160
:107F38007267696E6720626173650053656C667469
:107F4800657374206661696C656400526F626F7452
:107F58002077696C6C206D6F7665004172652079B9
:107F68006F7520737572653F3F0052657475726E48
:107F7800696E6720686F6D65004368617267696E36
:107F88006720726F626F74004D617374657220535D
:107F9800544154453A004D6F77696E67206C61779C
:107FA8006E0054727920416761696E3F00566F6CAC
:107FB800746167653A20002059657320002E2E2EC3
:107FC8002E2E0025332E3266004572726F72007CA9
:107FD8005965737C00204E6F20007C4E6F7C0049F1
:107FE8004E46004E414E00696E66006E616E002579
:077FF8003364006C66000019
:020000040020DA
:10000000FF0FFF0FFF0FFF0FFF0FFF0FFF0FFF0F80
:020000040030CA
:0A0000008FFFFFFF9FFFFFFFFFFFD0
:00000001FF
