:020000040000FA
:0400000054EF00F0C9
:1000080029002900290029002900290029002900A0
:10001800EC102900B4112900290029002900290021
:100028002900290029002900290029002900290080
:100038002900290029002900290029002900AC11DC
:100048002900290029002900290029002900290060
:10005800030DA811290029002900290029002900D9
:100068002900290029002900290029002900290040
:100078002900290029002900290029002900290030
:100088002900290029002900290029002900290020
:100098002900290029002900290029002900FF003A
:1000A800F4EF1CF0000E0001B46F000EB36F600097
:1000B8003CF2C5F0600040F2C6F0600044F2C7F0C0
:1000C800600048F2C8F0C8AF1ED0000EB46F010E31
:1000D800B36F600014F360F0600018F361F0600023
:1000E8001CF362F0600020F363F07FEC22F0600004
:1000F80080F1C5F0600084F1C6F0600088F1C7F0B7
:1001080060008CF1C8F0000E0001CC6F000ECB6FC0
:10011800600034F1B8F0600038F1B9F0B351B411AF
:10012800D8A402D0FDA514D0B351B411D8A404D0DA
:10013800000E9E6F2B0E03D0000E9E6F2D0E9D6F2E
:10014800600074F213F1CB4BCC2BB807D8A0B907D9
:10015800600014F360F0600018F361F060001CF3B5
:1001680062F0600020F363F043EC1BF000016005CF
:100178006111D8A452D0BF0E946FFF0E956F9351A2
:10018800966F976B9451962795519723975106E14F
:100198001A0E965DD8B002D0010E01D0000E9F6FE6
:1001A800A06B9F51A011D8B40DD0130ECB25606F52
:1001B800010ECC21616FE80E626F7F0E636F1AEC3F
:1001C80021F00CD0130ECB25606F010ECC21616F8E
:1001D800F00E626F7F0E636F1AEC21F00001FD0EC6
:1001E800B827FF0EB923600034F270F0600038F2CF
:1001F80071F0130E0001726F010E736F6000E0F270
:1002080074F06000E4F275F0B8EC1DF06000C0F125
:100218008DF06000C4F18EF01200600014F360F0FD
:10022800600018F361F060001CF362F0600020F3D6
:1002380063F043EC1BF0000160516111D8A434D085
:10024800BF0E946FFF0E956F9351966F976B9451F5
:10025800962795519723975106E11A0E965DD8B0C7
:1002680002D0010E01D0000EA16FA26BA151A21104
:10027800D8B40DD0130ECB25606F010ECC21616F61
:10028800EC0E626F7F0E636F1AEC21F0A7D7130E86
:10029800CB25606F010ECC21616FF40E626F7F0E6B
:1002A800636F1AEC21F09AD7000ECD6F000ECE6F57
:1002B800800ECF6F3F0ED06F000ECA6F000EC96F51
:1002C800600014F360F0600018F361F060001CF344
:1002D80062F0600020F363F0000E646F000E656F3B
:1002E800000E666F000E676FA6EC1FF00001D8A025
:1002F80026D09CD0600034F360F0600038F361F0E1
:1003080060003CF362F0600040F363F0000E646F3D
:10031800000E656F200E666F410E676F16EC0DF0CC
:10032800600080F1CDF0600084F1CEF0600088F1CB
:10033800CFF060008CF1D0F00001C94BCA2B6000EF
:1003480014F379F0600018F37AF060001CF37BF086
:10035800600020F37CF0000E646F000E656F200EC5
:10036800666F410E676F600034F360F0600038F329
:1003780061F060003CF362F0600040F363F016EC5B
:100388000DF0600080F17DF0600084F17EF0600087
:1003980088F17FF060008CF180F025EC1CF0000102
:1003A800D8A027D0A7D7600034F360F0600038F3F6
:1003B80061F060003CF362F0600040F363F0000E0F
:1003C800646F000E656F200E666F410E676F92ECCA
:1003D80013F0600080F1CDF0600084F1CEF0600091
:1003E80088F1CFF060008CF1D0F00001C907D8A0E7
:1003F800CA07600014F379F0600018F37AF060001F
:100408001CF37BF0600020F37CF0600034F37DF097
:10041800600038F37EF060003CF37FF0600040F34A
:1004280080F025EC1CF00001D8A0BDD760004CF28C
:1004380066F0676BACEC21F000016651BA6F6000A2
:10044800E8F2B7F0670EBA19D8A41BD0FB51FC111B
:10045800D8A404D0000EFC6F010EFB6FFCBF05D0C2
:10046800FC5108E1FB05D8B005D0000EB66F060EAA
:10047800B56F0AD06000ECF3B5F06000F0F3B6F0A9
:1004880003D0FCAFF7D7F1D7670EBA19D8A424D098
:10049800CAAF06D0FC0EC95DFF0ECA59D8A01AD043
:1004A800FF0E946FFF0E956F6000D4F296F0600017
:1004B800D8F297F09451962795519723C951965D94
:1004C8009751800A986FCA51800A9859D8A002D0CB
:1004D800660E01D0650EB76F6000D4F2ADF0600013
:1004E800D8F2AEF0670EBA19D8A405D0660EB719BF
:1004F800D8B4CAAF02D0AD4BAE2B660EB719D8A48C
:1005080016D0CAAF0CD0000ECD6F000ECE6F800E85
:10051800CF6F3F0ED06F000ECA6F000EC96F670E07
:10052800BA19D8B404D0C951AD27CA51AE23000EA8
:10053800C46F000EC36F600014F3BBF0600018F3C3
:10054800BCF060001CF3BDF0600020F3BEF060005A
:1005580034F399F0600038F39AF060003CF39BF0B4
:10056800600040F39CF0AED06000ECF260F06000F8
:10057800F0F261F06000F4F262F06000F8F263F00B
:10058800600034F364F0600038F365F060003CF319
:1005980066F0600040F367F092EC13F0600080F1C1
:1005A80079F0600084F17AF0600088F17BF06000F7
:1005B8008CF17CF03FEC16F06000E4F1BFF06000D5
:1005C800E8F1C0F06000ECF1C1F06000F0F1C2F0B9
:1005D8006000FCF260F0600000F361F0600004F37A
:1005E80062F0600008F363F08EEC1CF0600080F1AC
:1005F800B1F0600084F1B2F06000ECF279F06000D4
:10060800F0F27AF06000F4F27BF06000F8F27CF02F
:10061800600034F364F0600038F365F060003CF388
:1006280066F0600040F367F06000FCF260F0600084
:1006380000F361F0600004F362F0600008F363F017
:1006480016EC0DF0600080F17DF0600084F17EF022
:10065800600088F17FF060008CF180F04EEC21F0B2
:100668006000E4F1BBF06000E8F1BCF06000ECF180
:10067800BDF06000F0F1BEF0600034F360F060009F
:1006880038F361F060003CF362F0600040F363F01F
:10069800000E0001646F000E656F200E666F410E3C
:1006A800676F92EC13F0600080F1CDF0600084F188
:1006B800CEF0600088F1CFF060008CF1D0F000013E
:1006C800C34BC42BAD51C35DC451800A946FAE5166
:1006D800800A9459D8A048D7600034F360F06000CD
:1006E80038F361F060003CF362F0600040F363F0BF
:1006F800000E646F000E656FA00E666F400E676F88
:1007080016EC0DF0600080F1BFF0600084F1C0F0DD
:10071800600088F1C1F060008CF1C2F06000ECF27A
:1007280079F06000F0F27AF06000F4F27BF060009B
:10073800F8F27CF06000FCF27DF0600000F37EF0DF
:10074800600004F37FF0600008F380F025EC1CF0F3
:100758000001D8A01ED06000ECF260F06000F0F25A
:1007680061F06000F4F262F06000F8F263F060009B
:10077800FCF264F0600000F365F0600004F366F0DA
:10078800600008F367F0A6EC1FF00001D8B0B1B123
:1007980008D0000EBF6F000EC06F000EC16F000EB4
:1007A800C26F600014F360F0600018F361F060003D
:1007B8001CF362F0600020F363F06000FCF264F068
:1007C800600000F365F0600004F366F0600008F371
:1007D80067F0F0EC0EF0600080F1BBF0600084F18F
:1007E800BCF0600088F1BDF060008CF1BEF06000E4
:1007F80064F2CDF0600068F2CEF060006CF2CFF0E9
:10080800600070F2D0F0650E0001B719D8B407D0B7
:10081800600024F3AFF0600028F3B0F004D0000EBD
:10082800B06F000EAF6F000EAC6F000EAB6F000E16
:10083800AA6F000EA96F000EC46F000EC36FF9D027
:100848006000ECF260F06000F0F261F06000F4F239
:1008580062F06000F8F263F0600034F364F0600066
:1008680038F365F060003CF366F0600040F367F031
:1008780092EC13F0600080F179F0600084F17AF076
:10088800600088F17BF060008CF17CF03FEC16F0A2
:100898006000E4F1BFF06000E8F1C0F06000ECF146
:1008A800C1F06000F0F1C2F06000FCF260F060009E
:1008B80000F361F0600004F362F0600008F363F095
:1008C8008EEC1CF0600080F1B1F0600084F1B2F0B1
:1008D8000001FDB90CD0B151B211D8A408D0670EEF
:1008E800BA19D8B4B0AF03D0A94BAA2B39D0AB51A1
:1008F800AC11D8B4B0AF22D0130ECB25D96E010EEF
:10090800CC21DA6E2E0EDF6ECB4BCC2BB807D8A0DD
:10091800B907000EAC6F010EAB6F10D0130ECB25CC
:10092800D96E010ECC21DA6E300EDF6ECB4BCC2B9C
:10093800B807D8A0B907A907D8A0AA07A951AA112A
:10094800D8A4ECD7130ECB25D96E010ECC21DA6EC4
:10095800B151300FDF6ECB4BCC2BB807D8A0B907FD
:100968006000ECF279F06000F0F27AF06000F4F2E6
:100978007BF06000F8F27CF0600034F364F0600013
:1009880038F365F060003CF366F0600040F367F010
:100998006000FCF260F0600000F361F0600004F3B6
:1009A80062F0600008F363F016EC0DF0600080F16F
:1009B8007DF0600084F17EF0600088F17FF06000D7
:1009C8008CF180F04EEC21F06000E4F1BBF06000A7
:1009D800E8F1BCF06000ECF1BDF06000F0F1BEF0B1
:1009E800600034F360F0600038F361F060003CF3BD
:1009F80062F0600040F363F0000E0001646F000EC7
:100A0800656F200E666F410E676F92EC13F0600001
:100A180080F1CDF0600084F1CEF0600088F1CFF075
:100A280060008CF1D0F00001AF07D8A0B007C34B2D
:100A3800C42BAD51C35DC451800A946FAE51800A76
:100A48009459D8B008D0CCBFFBD6CC5104E14B0E9A
:100A5800CB5DD8A0F5D6AB51AC11D8B4FDA90AD05E
:100A6800130ECB25D96E010ECC21DA6E2E0EDF6E59
:100A7800CB4BCC2B130ECB25D96E010ECC21DA6EC5
:100A8800000EDF6E650EB719D8A4F7EF00F0000E60
:100A9800C46F4F0EC36F130EC325D96E010EC42148
:100AA800DA6E000EDF6E000EB46F000EB36FCAAFC1
:100AB80008D0000EB46F010EB36FC96DCA1FD8B04D
:100AC800CA2B000EB66F020EB56F32D0C307D8A07E
:100AD800C407130EC325D96E010EC421DA6E600057
:100AE80024F360F0600028F361F0000E636F0A0ED3
:100AF800626F75EC20F000016051300FDF6E60000E
:100B080024F360F0600028F361F0000E636F0A0EB2
:100B1800626FECEC1FF0600080F1C9F0600084F1B6
:100B2800CAF00001B507D8A0B607B807D8A0B9071A
:100B3800C951CA11D8A4CAD7B6BF05D0B651C6E1A3
:100B4800B505D8B0C3D7C307D8A0C407B351B411EB
:100B5800D8A404D0000EA46F2B0E03D0000EA46FEF
:100B68002D0EA36F130EC325D96E010EC421DA6EA4
:100B780060008FF2DFFFB807D8A0B907C307D8A075
:100B8800C407BF0E946FFF0E956F9351966F976BC6
:100B98009451962795519723975106E11A0E965D21
:100BA800D8B002D0010E01D0000EA76FA86BA751D4
:100BB800A811D8A404D0000EA66F650E03D0000EAD
:100BC800A66F450EA56F130EC325D96E010EC4215D
:100BD800DA6E600097F2DFFFB807D8A0B907130EE6
:100BE800CB25606F010ECC21616F130EC325626F98
:100BF800010EC421636F1AEC21F0F7EF00F0600ECC
:100C08003901D96FE5EC20F0ECEC22F03A01409183
:100C180040934095010EC06FC280C282C2843901E0
:100C28009181A191D280D28CD28ED29A95819593BE
:100C3800300EB212B284B282060EB56E000EB16EDC
:100C4800000EB06ED28EC3903A015091CB8018EC52
:100C58001FF073D3600048F459F05A6A0101BB05CC
:100C6800BC11D8A425D0000E116F000E106F000E15
:100C7800BC6F000EBB6F48EC23F0010E0001636FE0
:100C8800010E6DEC1EF07B0E0001666F7E0E676F25
:100C980031EC20F0010E0001636F020E6DEC1EF0C6
:100CA800F10E0001666F7E0E676F31EC20F045D3C0
:100CB800C3EC1EF0CAB441D3010110511111D8A4DC
:100CC80002D0010E01D0040E126F000EBC6F010E8F
:100CD800BB6FCAB432D3FDD7600048F459F05A6AE2
:100CE8000101BB05BC11D8A425D0000E116F010E5F
:100CF800106F000EBC6F000EBB6F48EC23F0010EA6
:100D08000001636F010E6DEC1EF0350E0001666F79
:100D18007F0E676F31EC20F0010E0001636F020E49
:100D28006DEC1EF0550E0001666F7F0E676F31EC9B
:100D380020F003D3C3EC1EF0CAB4FFD20101105156
:100D48001111D8A402D0020E01D0000E126F000EAD
:100D5800BC6F010EBB6FCAB4F0D2FDD7600048F477
:100D680059F05A6A0101BB05BC11D8A421D0000E64
:100D7800BC6F000EBB6F48EC23F0010E0001636FDF
:100D8800010E6DEC1EF0DE0E0001666F7E0E676FC1
:100D980031EC20F0010E0001636F020E6DEC1EF0C5
:100DA800C60E0001666F7F0E676F31EC20F0C5D26A
:100DB8000E050F11D8A40BD0000E0F6F000E0E6F8A
:100DC800000EBC6F010EBB6F030E126FB6D2020E7F
:100DD8000E190F11D8A4B1D2000E0F6F000E0E6FAE
:100DE800000EBC6F010EBB6F040E126F600048F45A
:100DF80059F05A6A48EC23F0010E0001636F010EA6
:100E08006DEC1EF0030E0001666F7F0E676F31EC0C
:100E180020F0A30E0001FA6F570EF96F020EE82EAC
:100E2800FED7F92FFCD7FA2FFAD700F086D2600048
:100E380048F459F05A6A0101BB05BC11D8A425D061
:100E4800000E116F000E106F000EBC6F000EBB6F0E
:100E580048EC23F0010E0001636F010E6DEC1EF0EB
:100E6800250E0001666F7F0E676F31EC20F0010ED2
:100E78000001636F020E6DEC1EF0AB0E0001666F91
:100E88007F0E676F31EC20F058D2C3EC1EF0CAB465
:100E980054D2010110511111D8A402D0010E01D071
:100EA800000E126F000EBC6F010EBB6FCAB445D2A4
:100EB800FDD7600048F459F05A6A0101BB05BC111E
:100EC800D8A425D0000E116F010E106F000EBC6F54
:100ED800000EBB6F48EC23F0010E0001636F010E9A
:100EE8006DEC1EF0900E0001666F7E0E676F31ECA0
:100EF80020F0010E0001636F020E6DEC1EF0550E1E
:100F08000001666F7F0E676F31EC20F016D2C3ECDC
:100F18001EF0CAB412D2010110511111D8A402D086
:100F2800050E01D0000E126F000EBC6F010EBB6FD4
:100F3800CAB403D2FDD70101BB05BC11D8A42ED079
:100F4800000EBC6F000EBB6F48EC23F0010E0001D1
:100F5800636F010E6DEC1EF09F0E0001666F7F0E31
:100F6800676F31EC20F0010E0001636F020E6DEC2B
:100F78001EF0C60E0001666F7F0E676F31EC20F021
:100F8800010E0001636F030E6DEC1EF0910E00015F
:100F9800666F7F0E676F31EC20F0CFD1750E636FEF
:100FA800010E646FF80E656F7F0E666F6F00C0FEEE
:100FB80067F1686B7EEC21F0010E0001636F040E8F
:100FC8006DEC1EF0600030F460F0600034F461F005
:100FD800000E0001636F140E626F05EC23F08C0E97
:100FE80000016025666F020E6121676F31EC20F009
:100FF800CAB45AD0B280000E5A6E000E596E320E24
:10100800B1649BD1000E0101126F000EBC6F010E7E
:10101800BB6F48EC23F0010E0001636F010E6DEC0D
:101028001EF0A40E0001666F7E0E676F31EC20F093
:1010380033D0890E0101636F010E646FF80E656F7E
:101048007F0E666F6F00C0FE67F1686B7EEC21F063
:10105800640EB16421D0070E0101126F48EC23F031
:10106800010E0001636F010E6DEC1EF0CB0E000146
:10107800666F7E0E676F31EC20F0010E0001636F22
:10108800020E6DEC1EF0140E0001666F7F0E676F86
:1010980031EC20F0CAA4FED7CAA4CBD7B290000E78
:1010A800B16E000EB06E49D1600048F459F05A6A2A
:1010B800B290000EB06E000EB16E3FD1600048F4E1
:1010C80059F05A6A0101BB05BC11D8A421D0000E01
:1010D800BC6F000EBB6F48EC23F0010E0001636F7C
:1010E800010E6DEC1EF0820E0001666F7F0E676FB9
:1010F80031EC20F0010E0001636F020E6DEC1EF062
:10110800B60E0001666F7F0E676F31EC20F015D1C7
:10111800B10E636F010E646FCC0E656F7F0E666F44
:10112800600020F467F1600024F468F1600028F49E
:1011380069F160002CF46AF17EEC21F00A0E0001DE
:10114800636F020E6DEC1EF0B10E0001666F010EAA
:10115800676F31EC20F0010E0001636F030E6DEC38
:101168001EF06000E4F660F06000E8F661F0000E42
:101178000001636F140E626F05EC23F0000E00018E
:101188006025666F020E6121676F31EC20F0D5D0C3
:10119800600048F459F05A6A0101BB05BC11D8A493
:1011A8002ED0000EBC6F000EBB6F48EC23F0010E72
:1011B8000001636F010E6DEC1EF0640E0001666F96
:1011C8007F0E676F31EC20F0010E0001636F020E95
:1011D8006DEC1EF0C60E0001666F7F0E676F31EC76
:1011E80020F0010E0001636F030E6DEC1EF0910EEE
:1011F8000001666F7F0E676F31EC20F09ED09D0E68
:10120800636F010E646FF80E656F7F0E666F6F0077
:10121800C0FE67F1686B7EEC21F0010E0001636F80
:10122800040E6DEC1EF0600030F460F0600034F4E1
:1012380061F0000E0001636F140E626F05EC23F07D
:101248008C0E00016025666F020E6121676F31EC1C
:1012580020F0CAB42DD7B280320EB1646ED0000E21
:101268000101126F000EBC6F010EBB6F48EC23F03A
:10127800010E0001636F010E6DEC1EF0A40E00015B
:10128800666F7E0E676F31EC20F0CAA4FED706D7D2
:10129800600048F459F05A6A0101BB05BC11D8A492
:1012A80025D0000E116F000E106F000EBC6F000EDF
:1012B800BB6F48EC23F0010E0001636F010E6DEC6B
:1012C8001EF0730E0001666F7F0E676F31EC20F021
:1012D800010E0001636F020E6DEC1EF0450E000159
:1012E800666F7F0E676F31EC20F027D0CAB425D027
:1012F800000E126F000EBC6F010EBB6FCAB41DD07A
:10130800FDD7600048F459F05A6A0101BB05BC11C9
:10131800D8A413D0000EBC6F000EBB6F48EC23F0AE
:10132800010E0001636F010E6DEC1EF0B80E000196
:10133800666F7E0E676F31EC20F0010112510001DB
:10134800F96FFA6BFA51000AD8A4DBD7F951000AF1
:10135800D8B480D4010AD8B4BFD4030AD8B4FED410
:10136800010AD8B464D5070AD8B4A3D5010AD8B4F9
:10137800E2D5030AD8B4A2D6010AD8B409D70F0A0D
:10138800D8B486D7BED760004FF3D9FF600053F3B7
:10139800DAFF6F007BFFF6FF6F0077FFF7FF0800AB
:1013A800F550250AD8A41BD360004FF3D9FF60007D
:1013B80053F3DAFFDE2A000EDD22000E4E6E000E19
:1013C8004D6E600034F1FDF0600038F1FEF0000170
:1013D800FB69FC6960004FF3D9FF600053F3DAFF43
:1013E8006F007BFFF6FF6F0077FFF7FF0800F550EF
:1013F8002A0AD8A42DD060004FF3D9FF600053F318
:10140800DAFFDE2A000EDD22600057F3D9FF600004
:101418005BF3DAFF6F007CFFD7F0020EDE266F0069
:101428007CFFD8F0000EDD2260005FF3D9FF60007A
:1014380063F3DAFF6F0078FF4DF06F0074FF4EF032
:101448004EAE4CD0FD814D6C4E1ED8B04E2A46D0C3
:1014580060004FF3D9FF600053F3DAFF6F0078FFA5
:1014680067F06F0074FF68F03DEC17F060009CF1C6
:101478004DF06000A0F14EF009D060004FF3D9FFA5
:10148800600053F3DAFFDE2A000EDD22D00E0001E1
:10149800D76FFF0ED86F60004FF3D9FF600053F38A
:1014A800DAFF6F007BFFF6FF6F0077FFF7FF08009A
:1014B800F550D96FDA6BD751D927D851DA23DA51D9
:1014C80006E10A0ED95DD8B002D0010E01D0000E97
:1014D800E36FE46BE351E411D8A4CFD760004FF376
:1014E800D9FF600053F3DAFF6F007BFFF6FF6F0050
:1014F80077FFF7FF0800F5502E0AD8A48AD0000E0F
:10150800FC6F000EFB6F60004FF3D9FF600053F3D0
:10151800DAFFDE2A000EDD2260004FF3D9FF6000FB
:1015280053F3DAFF6F007BFFF6FF6F0077FFF7FFDB
:101538000800F5502A0AD8A426D060004FF3D9FF36
:10154800600053F3DAFFDE2A000EDD22600057F355
:10155800D9FF60005BF3DAFF6F007CFFD7F0020E63
:10156800DE266F007CFFD8F0000EDD2260005FF3FE
:10157800D9FF600063F3DAFF6F0078FFFBF06F00BC
:1015880074FFFCF046D060004FF3D9FF600053F3BE
:10159800DAFF6F0078FF67F06F0074FF68F03DECCA
:1015A80017F060009CF1FBF06000A0F1FCF009D09E
:1015B80060004FF3D9FF600053F3DAFFDE2A000E14
:1015C800DD22D00E0001D76FFF0ED86F60004FF3F9
:1015D800D9FF600053F3DAFF6F007BFFF6FF6F005F
:1015E80077FFF7FF0800F550D96FDA6BD751D92785
:1015F800D851DA23DA5106E10A0ED95DD8B002D003
:10160800010E01D0000EE56FE66BE551E611D8A496
:10161800CFD760004FF3D9FF600053F3DAFF6F00B4
:101628007BFFF6FF6F0077FFF7FF0800F550666F46
:10163800676BACEC21F000016651ED6FED51D8B449
:1016480041D060004FF3D9FF600053F3DAFF6F0019
:1016580078FFD7F06F0074FFD8F0010ED727000E7F
:10166800D82360005FF3F6FF600063F3F7FF08001C
:10167800F550666F676BACEC21F000016651EE6FB8
:10168800EE51D8B41FD060004FF3D9FF600053F378
:10169800DAFF6F0078FFD7F06F0074FFD8F0020E02
:1016A800D727000ED82360005FF3F6FF600063F3CE
:1016B800F7FF0800F550666F676BACEC21F000018E
:1016C8006651EF6F60004FF3D9FF600053F3DAFF04
:1016D8006F007BFFF6FF6F0077FFF7FF0800F550FC
:1016E800640AD8B411D060004FF3D9FF600053F3F7
:1016F800DAFF6F007BFFF6FF6F0077FFF7FF080048
:10170800F550690AD8A455D060004FF3D9FF60009E
:1017180053F3DAFFDE2A000EDD22600057F3D9FF0B
:1017280060005BF3DAFF6F007CFFD7F0020EDE2665
:101738006F007CFFD8F0000EDD2260005FF3D9FF58
:10174800600063F3DAFF6F0078FFDBF06F0074FF6F
:10175800DCF0000EDCBFFF0EDD6FDE6FDF6FE06FC9
:10176800E16FE26F600044F37BF0600048F37CF0C7
:1017780060006CF37DF0600070F37EF0600074F33D
:101788007FF0600078F380F060007CF381F0600007
:1017980080F382F0600084F383F0600088F384F0C3
:1017A80039EC12F06000ECF1D1F06000F0F1D2F009
:1017B8001200660EED19D8A459D060004FF3D9FF76
:1017C800600053F3DAFF6F007BFFF6FF6F0077FFCF
:1017D800F7FF08006F00D4FFF0F060004FF3D9FF67
:1017E800600053F3DAFFDE2A000EDD22600057F3B3
:1017F800D9FF60005BF3DAFF6F007CFFD7F0040EBF
:10180800DE266F007CFFD8F0000EDD2260005FF35B
:10181800D9FF600063F3DAFF6F0078FFE9F06F002B
:1018280078FFEAF06F0078FFEBF06F0078FFECF0DC
:10183800600044F38DF0600048F38EF06000A4F37C
:101848008FF06000A8F390F06000ACF391F06000B6
:10185800B0F392F06000C0F393F056EC00F0600033
:1018680034F2D1F0600038F2D2F01200ED0E606F61
:10187800000E616FFC0E626F7F0E636F000E656F66
:10188800020E646F56EC1DF0000160516111D8A47E
:101898006CD060004FF3D9FF600053F3DAFF6F009C
:1018A80078FFD7F06F0074FFD8F0010ED727000E2D
:1018B800D82360005FF3F6FF600063F3F7FF0800CA
:1018C8006F00D4FFF0F0BF0ED76FFF0ED86F600027
:1018D8004FF3D9FF600053F3DAFF6F007BFFF6FF89
:1018E8006F0077FFF7FF0800F550D96FDA6BD75113
:1018F800D927D851DA23DA5106E11A0ED95DD8B0C2
:1019080002D0010E01D0000EE76FE86BE751E81135
:10191800600057F3D9FF60005BF3DAFF6F007CFFCC
:10192800D7F0040EDE266F007CFFD8F0000EDD2213
:1019380060005FF3D9FF600063F3DAFF6F0078FFA0
:10194800E9F06F0078FFEAF06F0078FFEBF06F00C6
:1019580078FFECF0020E60004FF3D9FF600053F3FC
:10196800DAFFDE26000EDD2263D760004FF3D9FFD1
:10197800600053F3DAFF6F007BFFF6FF6F0077FF1D
:10198800F7FF0800F550250AD8A41BD060004FF3D4
:10199800D9FF600053F3DAFFDE2A000EDD22000EC5
:1019A800616F250E606F600044F362F0600048F3D9
:1019B80063F015EC1EF0000E0001D26F010ED16F1E
:1019C800120060004FF3D9FF600053F3DAFFDE2AFC
:1019D800000EDD22000ED26F000ED16F12006000E3
:1019E8004FF3D9FF600053F3DAFF6F007BFFF6FF78
:1019F8006F0077FFF7FF0800F5500001606F616B1B
:101A0800600044F362F0600048F363F015EC1EF0E8
:101A180060004FF3D9FF600053F3DAFFDE2A000EAF
:101A2800DD22C9D700016351800B6C6F63516325B8
:101A3800726F62BF72817251D8B40DD07229D8A466
:101A480008D0000E606F000E616F000E626F000E0E
:101A5800636F628F08D0000E606F000E616F000E1A
:101A6800626F000E636F6751800B6C1B67516725AF
:101A7800716F66BF71817151D8B40DD07129D8A426
:101A880008D0000E646F000E656F000E666F000EC2
:101A9800676F668F08D0000E646F000E656F000ECA
:101AA800666F000E676F7151D8B403D07251D8A415
:101AB80009D0000E606F000E616F000E626F000E9D
:101AC800636F1200665160036F00CCFF77F06F0000
:101AD800D0FF78F077516D6F6E6B6F6B706B7851CC
:101AE800736F746B756B766B655161036F00CCFF18
:101AF80077F06F00D0FF78F077516D27000E6E23D6
:101B08006F23702378517327000E7423752376236F
:101B1800645162036F00CCFF77F06F00D0FF78F05C
:101B280077516D27000E6E236F237023785173272A
:101B3800000E7423752376236000BCF170F06000FA
:101B4800B8F16FF06000B4F16EF06D6B6451610331
:101B58006F00CCFF77F06F00D0FF78F077516D27DA
:101B680078516E23000E6F23000E702365516003B9
:101B78006F00CCFF77F06F00D0FF78F077516D27BA
:101B880078516E23000E6F23000E70236000BCF1A5
:101B980070F06000B8F16FF06000B4F16EF06D6B3A
:101BA800645160036F00CCFF77F06F00D0FF78F0CE
:101BB80077516D2778516E23000E6F23000E702326
:101BC800665161036F00CCFF77F06F00D0FF78F0AB
:101BD8007751732778517423000E7523000E7623EE
:101BE800655162036F00CCFF77F06F00D0FF78F08B
:101BF8007751732778517423000E7523000E7623CE
:101C0800665162036F00CCFF77F06F00D0FF78F069
:101C18007751686F7851696F6A6B6B6B6000A8F1D8
:101C28006BF06000A4F16AF06000A0F169F0686BE5
:101C380068517327695174236A5175236B51762350
:101C48006000B4F168F06000B8F169F06000BCF1C0
:101C58006AF06000C0F16BF0190E05D0D8906B33B4
:101C68006A3369336833E82EF9D7685173276951A5
:101C780074236A5175236B5176236000BCF170F0B0
:101C88006000B8F16FF06000B4F16EF06D6B7151E7
:101C98006000C8F168F0696B6827000E6923820E3E
:101CA8006825776FFF0E6921786F0FD0D89073374A
:101CB80074377537763770BF7381D8906D376E3744
:101CC8006F3770377707D8A0780775AFEFD7000E52
:101CD800716F70AF17D0FF0E6D15686FFF0E6E1520
:101CE800696FFF0E6F156A6F7F0E70156B6F685105
:101CF80069116A116B11D8B403D0010E716F02D04B
:101D080073B1FBD77151D8B427D0010E7327000ED9
:101D180074237523762376A11FD06000CCF168F078
:101D28006000D0F169F06000D4F16AF06000D8F189
:101D38006BF06B356B336A33693368336000A0F13D
:101D480073F06000A4F174F06000A8F175F0600011
:101D5800ACF176F0774B782B78BF0DD0785103E152
:101D68007729D8A008D0000E736F000E746F800E0C
:101D7800756F7F0E21D078BF05D078510EE17705B9
:101D8800D8B00BD0000E736F000E746F000E756F15
:101D9800000E766F000E6C6F10D06000DCF172F0F0
:101DA800FF0E7317FF0E74177F0E7517000E761748
:101DB80072B1758FD8907231766F6C51761360005E
:101DC800CCF160F06000D0F161F06000D4F162F015
:101DD8006000D8F163F0120000016351800B6C6F52
:101DE800635163256E6F62BF6E816E51D8B40DD09A
:101DF8006E29D8A408D0000E606F000E616F000E27
:101E0800626F000E636F628F06D0000E606F000E67
:101E1800616F000E626F000E636F6751800B6D6F0C
:101E28006C516D19D8A46C8D675167256D6F66BFAD
:101E38006D816D51D8B40DD06D29D8A408D0000E8D
:101E4800646F000E656F000E666F000E676F668F19
:101E580006D0000E646F000E656F000E666F000EF0
:101E6800676F6E516D5DD8B031D06CAD02D0800E09
:101E78006C1B6000B8F16FF06000B4F16EF06000A8
:101E8800BCF16DF0600080F16FF0600090F160F0DF
:101E98006000BCF164F0600084F16FF0600094F1C0
:101EA80061F06000BCF165F0600088F16FF06000DF
:101EB80098F162F06000BCF166F060008CF16FF0A0
:101EC80060009CF163F06000BCF167F0000E6F6F7A
:101ED8006E516000B4F168F0696B685F000E695B71
:101EE80069BF2DD0695104E11A0E685DD8A027D0CA
:101EF8006051611162116311D8B402D0010E01D092
:101F0800000E6F6F000E606F000E616F000E626F43
:101F1800000E636F6000B4F16EF015D06FA105D0AC
:101F2800D8906F3101096F6F02D0D8906F3360B1CC
:101F38006F8F633563336233613360336E2B6D515A
:101F48006E5DD8A0EBD76CBD28D06E51D8A409D04F
:101F5800000E606F000E616F000E626F000E636FFF
:101F680012006451602765516123665162236751ED
:101F7800632363A171D06FA105D0D8906F31010997
:101F88006F6F02D0D8906F3360B16F8F6335633352
:101F98006233613360336E2B5FD06451605D65518D
:101FA8006159665162596351800A686F6751800AA6
:101FB8006859D8B025D06051645D686F6151655922
:101FC800696F625166596A6F635167596B6FFF0E8B
:101FD8006825606FFF0E6921616FFF0E6A21626FCD
:101FE800FF0E6B21636F800E6C1B6F6D6F51D8A451
:101FF8000FD0010E6027000E61236223632308D0EF
:102008006451605F6551615B6651625B6751635BF8
:102018006051611162116311D8A41CD06F51D8A40A
:1020280019D0000E606F000E616F000E626F000E17
:10203800636F1200D89060376137623763376FBFBC
:1020480060816FA102D0D88001D0D8906F376E51CF
:10205800D8A46E0762AFEED7000E6D6F6FAF0CD0CD
:102068006000BCF168F07F0E6817D8B403D0010E89
:102078006D6F02D060B1FBD76D51D8B428D0010E76
:102088006027000E61236223632363A120D06000D0
:1020980080F168F0600084F169F0600088F16AF00E
:1020A80060008CF16BF06B356B336A3369336833DE
:1020B8006000A0F160F06000A4F161F06000A8F198
:1020C80062F06000ACF163F06E29D8A46E2B6E2923
:1020D800D8B403D06E51D8A40DD0000E606F000E96
:1020E800616F000E626F000E636F6E51D8A402D04C
:1020F800000E6C6F6EA102D0628F01D0629FD890E3
:102108006E31636F6CBF638F600080F160F06000B8
:1021180084F161F0600088F162F060008CF163F096
:1021280012002C50800B356E2C502C24376E2BBE91
:1021380037803750D8B40DD03728D8A408D0000E2F
:10214800296E000E2A6E000E2B6E000E2C6E2B8E42
:1021580006D0000E296E000E2A6E000E2B6E000EA1
:102168002C6E3050800B366E35503618D8A4358C0E
:1021780030503024366E2FBE36803650D8B40DD04D
:102188003628D8A408D0000E2D6E000E2E6E000E34
:102198002F6E000E306E2F8E06D0000E2D6E000EA4
:1021A8002E6E000E2F6E000E306E3750365CD8B093
:1021B80031D035AC02D0800E351A6000DCF038F032
:1021C8006000D8F037F06000E0F036F06000A4F06E
:1021D80038F06000B4F029F06000E0F02DF0600005
:1021E800A8F038F06000B8F02AF06000E0F02EF0B7
:1021F8006000ACF038F06000BCF02BF06000E0F05C
:102208002FF06000B0F038F06000C0F02CF06000F3
:10221800E0F030F0000E386E37506000D8F031F042
:10222800326A315E000E325A32BE2DD0325004E18D
:102238001A0E315CD8A027D029502A102B102C1048
:10224800D8B402D0010E01D0000E386E000E296EEF
:10225800000E2A6E000E2B6E000E2C6E6000D8F059
:1022680037F015D038A005D0D89038300109386E2D
:1022780002D0D890383229B0388E2C342C322B32F8
:102288002A322932372A3650375CD8A0EBD735BCEA
:1022980028D03750D8A409D0000E296E000E2A6E17
:1022A800000E2B6E000E2C6E12002D5029262E507B
:1022B8002A222F502B2230502C222CA071D038A04B
:1022C80005D0D89038300109386E02D0D89038320D
:1022D80029B0388E2C342C322B322A322932372A24
:1022E8005FD02D50295C2E502A582F502B582C5037
:1022F800800A316E3050800A3158D8B025D0295024
:102308002D5C316E2A502E58326E2B502F58336E5A
:102318002C503058346EFF0E3124296EFF0E3220B7
:102328002A6EFF0E33202B6EFF0E34202C6E800E8B
:10233800351A386C3850D8A40FD0010E2926000E53
:102348002A222B222C2208D02D50295E2E502A5AC0
:102358002F502B5A30502C5A29502A102B102C1041
:10236800D8A41CD03850D8A419D0000E296E000E5D
:102378002A6E000E2B6E000E2C6E1200D890293695
:102388002A362B362C3638BE298038A002D0D88081
:1023980001D0D89038363750D8A437062BAEEED7B0
:1023A800000E366E38AE0CD06000E0F031F07F0ED3
:1023B8003116D8B403D0010E366E02D029B0FBD73F
:1023C8003650D8B428D0010E2926000E2A222B22F6
:1023D8002C222CA020D06000A4F031F06000A8F0DE
:1023E80032F06000ACF033F06000B0F034F0343418
:1023F80034323332323231326000C4F029F06000B6
:10240800C8F02AF06000CCF02BF06000D0F02CF07F
:102418003728D8A4372A3728D8B403D03750D8A4B7
:102428000DD0000E296E000E2A6E000E2B6E000EC7
:102438002C6E3750D8A402D0000E356E37A002D0CB
:102448002B8E01D02B9ED89037302C6E35BE2C8E1B
:102458006000A4F029F06000A8F02AF06000ACF059
:102468002BF06000B0F02CF012006000F4F195F051
:102478006000F8F196F06000FCF197F0600000F25F
:1024880098F0600004F299F0600008F29AF0600099
:102498000CF29BF0600010F29CF000019CAF02D09F
:1024A800010E01D0000E936F946B93519411D8B420
:1024B80010D09C1F9B1F9A1F991F981F971F961F2C
:1024C800956D000E96239723982399239A239B238F
:1024D8009C23FCAFFD93FCBF05D0FC5108E1FB0534
:1024E800D8B005D0000E906F010E8F6F06D0600037
:1024F800ECF38FF06000F0F390F0600034F191F0AD
:10250800600038F192F093519411D8A402D0FDA53F
:1025180003D09107D8A09207000E9E6F4F0E9D6FB3
:10252800000E0101626F9FD09D07D8A09E07130E71
:102538009D25D96E010E9E21DA6E600054F260F07E
:10254800600058F261F060005CF262F0600060F2D6
:1025580063F0600064F264F0600068F265F06000A7
:102568006CF266F0600070F267F00A0E686F000E99
:10257800696F000E6A6F000E6B6F000E6C6F000EB5
:102588006D6F000E6E6F000E6F6FA8EC1AF0600092
:1025980080F185F0600084F186F0600088F187F0B2
:1025A80060008CF188F0600090F189F0600094F18F
:1025B8008AF0600098F18BF060009CF18CF060006C
:1025C80014F272F060001CF273F040EC22F000018B
:1025D8007251300FDF6E8F07D8A090079107D8A0EF
:1025E8009207600054F260F0600058F261F06000F9
:1025F8005CF262F0600060F263F0600064F264F024
:10260800600068F265F060006CF266F0600070F2DD
:1026180067F00A0E686F000E696F000E6A6F000E91
:102628006B6F000E6C6F000E6D6F000E6E6F000EFC
:102638006F6F58EC19F0600080F195F0600084F13C
:1026480096F0600088F197F060008CF198F06000D7
:1026580090F199F0600094F19AF0600098F19BF085
:1026680060009CF19CF000019EBF1FD09E5103E1C9
:102678009D05D8A01AD095519611971198119911C6
:102688009A119B119C11D8A44FD790BF05D0905197
:1026980002E18F05D8B048D792BF07D0925103E125
:1026A8009105D8A002D0FDB33FD793519411D8A477
:1026B80002D0FDA518D09D07D8A09E07935194116C
:1026C800D8A404D0000E8E6F2B0E03D0000E8E6F90
:1026D8002D0E8D6F130E9D25D96E010E9E21DA6E7B
:1026E800600037F2DFFF6000ECF170F06000F0F19D
:1026F80071F0130E9D25726F010E9E21736F60009D
:1027080044F274F0600048F275F0B8EC1DF0600017
:10271800C0F17BF06000C4F17CF01200000163514D
:10272800800B706F63516325776F62BF7781775134
:10273800D8B40DD07729D8A408D0000E606F000E49
:10274800616F000E626F000E636F628F06D0000E1D
:10275800606F000E616F000E626F000E636F67514D
:10276800800B701B67516725786F66BF7881785139
:10277800D8B40DD07829D8A408D0000E646F000E04
:10278800656F000E666F000E676F668F06D0000ECD
:10279800646F000E656F000E666F000E676F645100
:1027A800651166116711D8A41BD0000E606F000E6A
:1027B800616F000E626F000E636F800E62137F0EF2
:1027C800631370516313600080F160F0600084F15E
:1027D80061F0600088F162F060008CF163F0120033
:1027E8007751D8A409D0000E606F000E616F000EFB
:1027F800626F000E636F120078516000DCF168F0C0
:10280800696B685F000E695B7F0E6825716F000E4B
:102818006921726F600080F16CF0600084F16DF0E6
:10282800600088F16EF060008CF16FF0000E606F50
:10283800000E616F000E626F000E636F000E736F03
:10284800000E746F000E756F000E766F000E786FB5
:1028580028D07851D8B411D0D8906C376D376E37EE
:102868006F37D890603761376237633776BF6081DA
:10287800D890733774377537763764516C5D655106
:102888006D5966516E5967516F59D8A009D0768D28
:1028980064516C5F65516D5B66516E5B67516F5B30
:1028A800782B190E7865D5D76C516D116E116F1193
:1028B800D8B411D073810FD0D890603761376237A0
:1028C800633776BF6081D89073377437753776373A
:1028D8007107D8A0720762AFEFD7000E786F76AF96
:1028E80017D0FF0E7315686FFF0E7415696FFF0E12
:1028F80075156A6F7F0E76156B6F685169116A11CD
:102908006B11D8B403D0010E786F02D060B1FBD739
:102918007851D8B427D0010E6027000E61236223B6
:10292800632363A11FD0600080F168F0600084F128
:1029380069F0600088F16AF060008CF16BF06B352B
:102948006B336A33693368336000A0F160F060006C
:10295800A4F161F06000A8F162F06000ACF163F0EE
:10296800714B722B72BF10D0725103E17129D8A03C
:102978000BD0000E726F7169000E606F000E616FF0
:10298800000E626F000E636F72BF05D0725111E1C5
:102998007105D8B00ED0000E726F000E716F000E68
:1029A800606F000E616F000E626F000E636F000EA5
:1029B800706F6000C4F177F077A102D0628F01D008
:1029C800629FD8907731636FFCD61350800B206ECE
:1029D80013501324276E12BE27802750D8B40DD069
:1029E8002728D8A408D0000E106E000E116E000E15
:1029F800126E000E136E128E06D0000E106E000EB0
:102A0800116E000E126E000E136E1750800B201AF6
:102A180017501724286E16BE28802850D8B40DD019
:102A28002828D8A408D0000E146E000E156E000ECB
:102A3800166E000E176E168E06D0000E146E000E5F
:102A4800156E000E166E000E176E14501510161027
:102A58001710D8A41BD0000E106E000E116E000EB9
:102A6800126E000E136E800E12127F0E131220507B
:102A78001312600040F010F0600044F011F06000A4
:102A880048F012F060004CF013F012002750D8A460
:102A980009D0000E106E000E116E000E126E000EA0
:102AA800136E1200285060009CF018F0196A185E26
:102AB800000E195A7F0E1824216E000E1920226E5E
:102AC800600040F01CF0600044F01DF0600048F029
:102AD8001EF060004CF01FF0000E106E000E116E1C
:102AE800000E126E000E136E000E236E000E246E82
:102AF800000E256E000E266E000E286E28D0285077
:102B0800D8B411D0D8901C361D361E361F36D89032
:102B1800103611361236133626BE1080D89023365A
:102B280024362536263614501C5C15501D58165070
:102B38001E5817501F58D8A009D0268C14501C5E58
:102B480015501D5A16501E5A17501F5A282A190E6A
:102B58002864D5D71C501D101E101F10D8B411D0D2
:102B680023800FD0D890103611361236133626BE71
:102B78001080D89023362436253626362106D8A04C
:102B8800220612AEEFD7000E286E26AE17D0FF0E23
:102B98002314186EFF0E2414196EFF0E25141A6ED6
:102BA8007F0E26141B6E185019101A101B10D8B45B
:102BB80003D0010E286E02D010B0FBD72850D8B42D
:102BC80027D0010E1026000E11221222132213A064
:102BD8001FD0600040F018F0600044F019F0600069
:102BE80048F01AF060004CF01BF01B341B321A320C
:102BF80019321832600060F010F0600064F011F0D3
:102C0800600068F012F060006CF013F0214A222A8C
:102C180022BE10D0225003E12128D8A00BD0000EEC
:102C2800226E2168000E106E000E116E000E126EDC
:102C3800000E136E22BE05D0225011E12104D8B037
:102C48000ED0000E226E000E216E000E106E000EC9
:102C5800116E000E126E000E136E000E206E6000D4
:102C680084F027F027A002D0128E01D0129ED890AF
:102C78002730136EFCD6600000F489F0600004F47D
:102C88008AF0600008F48BF060000CF48CF06000AF
:102C9800E4F189F06000E8F18AF06000ECF18BF073
:102CA8006000F0F18CF0810E00017D6FFF0E7E6FE9
:102CB800600024F27FF0600028F280F060002CF2BF
:102CC80081F0600030F282F0180E05D0D89082337F
:102CD800813380337F33E82EF9D77F517D25876F85
:102CE800000E7E21886F88BF13D0885104E1170E2B
:102CF800875DD8A00DD06000E4F179F06000E8F1BC
:102D08007AF06000ECF17BF06000F0F17CF01200EA
:102D180088BF68D060001CF27DF0FF0E7E6FFF0E4A
:102D28007F6F7F0E806F000E816F7D6701D007D0A7
:102D38008135813380337F337E337D2FF6D7600032
:102D4800F8F183F06000FCF184F0600000F285F097
:102D5800600004F286F00001835189157D6F84516B
:102D68008A157E6F85518B157F6F86518C15806F04
:102D78007D517E117F118011D8B4BDD7600024F237
:102D88007DF0600028F27EF060002CF27FF0600099
:102D980030F280F0200E05D0D89080337F337E3318
:102DA8007D33E82EF9D77D517E117F118011D8B47B
:102DB80008D08351892784518A2385518B238651D2
:102DC8008C23831D7D6F841D7E6F851D7F6F861DFF
:102DD800806F7D5189177E518A177F518B178051DB
:102DE8008C173AD0600024F27DF0600028F27EF063
:102DF80060002CF27FF0600030F280F0200E05D0E9
:102E0800D89080337F337E337D33E82EF9D77D51D8
:102E18007E117F118011D8A408D0000E896F000E92
:102E28008A6F000E8B6F000E16D0D89089357D6F93
:102E38008A357E6F8B357F6F8C35806F7D517E1123
:102E48007F118011D8B408D0000E896F000E8A6FE8
:102E5800800E8B6FBF0E8C6F600024F279F06000DB
:102E680028F27AF060002CF27BF0600030F27CF0FF
:102E78001200000E0001756F000E746F000E6E6F69
:102E8800000E6D6F02D0674B682B010E736F6000E8
:102E98009FF1F6FF6000A3F1F7FF0800F550200A44
:102EA800D8B41AD0F70E696FFF0E6A6F60009FF1F1
:102EB800F6FF6000A3F1F7FF0800F5506B6F6C6B2D
:102EC80069516B276A516C236C5104E1050E6B5DE7
:102ED800D8A002D0000E736F6000CCF16FF0706B59
:102EE8006F517011D8B408D0CED7000E6E6F010E96
:102EF8006D6F674B682B35D060009FF1F6FF60005F
:102F0800A3F1F7FF0800F550696F6A6B6A51000A70
:102F1800D8A427D069512B0AD8B4EBD7060AD8B45D
:102F2800E4D71FD06000D0F160F06000D4F161F008
:102F3800000E636F0A0E626F05EC23F060009FF1CC
:102F4800F6FF6000A3F1F7FF0800F5500001605F8D
:102F5800000E615B300E6025746F000E6121756F85
:102F6800C8D7D00E696FFF0E6A6F60009FF1F6FF39
:102F78006000A3F1F7FF0800F5506B6F6C6B6951A7
:102F88006B276A516C236C5106E10A0E6B5DD8B051
:102F980002D0010E01D0000E716F726B7151721167
:102FA800D8A4C0D76D516E11D8A411D06000D0F14B
:102FB80069F06000D4F16AF0691F6A1F694B6A2BD7
:102FC8006000A4F167F06000A8F168F012006000EA
:102FD800D0F167F06000D4F168F01200494E49540E
:102FE80020202020202020202020202020202000F9
:102FF80053454C465F544553542020202020202020
:103008002020200052554E20202020202020202043
:10301800202020202020200052554E5F534C4F572F
:1030280020202020202020202020200041564F4909
:10303800445F504552492020202020202020200095
:103048005452595F4C4546542020202020202020EF
:10305800202020005452595F5249474854202020CC
:1030680020202020202020005452595F494E5354DC
:103078004541445F4C454654202020005452595F36
:10308800494E53544541445F524947485420200013
:103098005452595F4C4153545F54494D455F4C4518
:1030A800465420005452595F4C4153545F54494D83
:1030B800455F5249474854005452595F4241434B77
:1030C80057415244202020202020200053545543AB
:1030D8004B202020202020202020202020202000DD
:1030E80046494E445F504552494D4554455220206B
:1030F8002020200052414E444F4D5F5455524E20DF
:10310800202020202020200052455455524E5F4850
:103118004F4D4520202020202020200043484152A8
:1031280047494E4720202020202020202020200012
:10313800534552524F52202020202020202020206A
:10314800202020000A6E0A50D8A405AE22D06000C4
:1031580008F006F060000CF007F0600010F008F0CE
:10316800600014F009F0061E071E081E091E062A34
:10317800000E072208220922600018F00CF06000F7
:103188001CF00DF0600020F00EF0600024F00FF04D
:103198000CD0600008F00CF060000CF00DF060003E
:1031A80010F00EF0600014F00FF00250031004103D
:1031B8000510D8A409D0000E026E000E036E000E92
:1031C800046E000E056E1200960E0B6E06D00B2ACA
:1031D800D8900F320E320D320C32000E0C14066EDF
:1031E800000E0D14076E000E0E14086EFE0E0F145E
:1031F800096E0650071008100910D8B40DD0E7D78B
:103208000B2A010E0C26000E0D220E220F22D8903A
:103218000F320E320D320C32000E0C14066E000EF8
:103228000D14076E000E0E14086EFF0E0F14096EB3
:103238000650071008100910D8B407D0E1D70B06BC
:10324800D8900C360D360E360F360EBE03D0020E51
:103258000B60F5D70BA00E9ED8900B3260002CF0B7
:1032680006F0076A086A096A600018F009F0086A37
:10327800076A066A06500C1207500D1208500E1203
:1032880009500F120A50D8A405AE01D00F8E600065
:1032980030F002F0600034F003F0600038F004F021
:1032A80060003CF005F01200000E0001716F6FAF76
:1032B80012D06F1F6E1F6D1F6C1F6B1F6A1F691F57
:1032C800686D000E69236A236B236C236D236E23BC
:1032D8006F23010E716F67AF12D0671F661F651FDE
:1032E800641F631F621F611F606D000E61236223EC
:1032F80063236423652366236723010E711B20EE75
:1033080072F0070EDE6AE806FDE2685169116A117B
:103318006B116C116D116E116F11D8B446D0010E7E
:10332800706F0AD0D890683769376A376B376C374F
:103338006D376E376F37702B6FAFF4D7D890723701
:103348007337743775377637773778377937685101
:10335800605D695161596A5162596B5163596C5189
:1033680064596D5165596E5166596F516759D8A0A6
:1033780011D06851605F6951615B6A51625B6B5142
:10338800635B6C51645B6D51655B6E51665B6F513D
:10339800675B7281D8906F336E336D336C336B33E8
:1033A8006A3369336833702FC9D77151D8B410D0D4
:1033B800791F781F771F761F751F741F731F726D13
:1033C800000E7323742375237623772378237923B8
:1033D8006000C8F160F06000CCF161F06000D0F1ED
:1033E80062F06000D4F163F06000D8F164F060002E
:1033F800DCF165F06000E0F166F06000E4F167F090
:023408001200B0
:10340C0080BE82D09CD0600064F13BF0600068F11B
:10341C003CF0000E036E000E026E3B0E046E000EAE
:10342C00056E000E076E010E066EBAEC1BF086D010
:10343C006F001CFE0EF101010F6B80D0000E01011C
:10344C00BC6F010EBB6F6F001CFE12F1600048F4E4
:10345C0059F05A6A73D06F001CFE0CF101010D6B10
:10346C006DD06F001CFEB9F10101BA6B67D08750AB
:10347C00026E036A046A056A010EA6EC18F060007D
:10348C0008F029F060000CF02AF0600010F02BF02E
:10349C00600014F02CF0000E146E000E156EC80EA9
:1034AC00166E420E176E8850026E036A046A056A25
:1034BC00010EA6EC18F0600008F010F060000CF0A3
:1034CC0011F0600010F012F0600014F013F0E9EC51
:1034DC0014F0600040F02DF0600044F02EF060001D
:1034EC0048F02FF060004CF030F095EC10F06000DC
:1034FC00A4F008F16000A8F009F16000ACF00AF14A
:10350C006000B0F00BF11AD08650396E3A6A3A501E
:10351C00000AD8A413D03950000AD8B474D7010AC1
:10352C00D8B486D7030AD8B489D7010AD8B493D7AC
:10353C00070AD8B496D7010AD8B499D7809E390116
:10354C00A5911100000E0001716F67AF12D0671FBB
:10355C00661F651F641F631F621F611F606D000E75
:10356C006123622363236423652366236723010E8F
:10357C00716F6FAF10D06F1F6E1F6D1F6C1F6B1FA5
:10358C006A1F691F686D000E69236A236B236C2305
:10359C006D236E236F23685169116A116B116C11C5
:1035AC006D116E116F11D8B43CD0010E706F0AD032
:1035BC00D890683769376A376B376C376D376E3729
:1035CC006F37702B6FAFF4D76851605D69516159DB
:1035DC006A5162596B5163596C5164596D516559FB
:1035EC006E5166596F516759D8A010D06851605F01
:1035FC006951615B6A51625B6B51635B6C51645BDB
:10360C006D51655B6E51665B6F51675BD8906F3324
:10361C006E336D336C336B336A3369336833702FAD
:10362C00D3D77151D8B410D0671F661F651F641FA4
:10363C00631F621F611F606D000E61236223632391
:10364C006423652366236723600080F160F06000CB
:10365C0084F161F0600088F162F060008CF163F03D
:10366C00600090F164F0600094F165F0600098F1F6
:10367C0066F060009CF167F01200600010F46AF0D4
:10368C00600014F46BF0600018F46CF060001CF433
:10369C006DF0600080F16AF0600084F16BF0600006
:1036AC0088F16CF060008CF16DF06000A8F164F0B2
:1036BC006000ACF165F06000B0F166F06000B4F150
:1036CC0067F0180E06D00001D89067336633653367
:1036DC006433E82EF8D76451686F696B68516911CF
:1036EC00D8A419D0D8906A35646F6B35656F6C357A
:1036FC00666F6D35676F6451651166116711D8A4DB
:10370C0005D0000E616F020E606F1200000E616F2B
:10371C00030E606F120068296911D8A420D06000D4
:10372C00A8F164F06000ACF165F06000B0F166F0F7
:10373C006000B4F167F0090ED890643765376637CE
:10374C006737E82EF9D76451651166116711D8A453
:10375C0002D0010E01D0000E606F616B1200000EE2
:10376C00616F040E606F12003701E097F10E8F1637
:10377C00030EE013600013F0D9FF600017F0DAFFBE
:10378C00DF50E66F20EE02F00450D9260550DA2205
:10379C00DF50E76F20EE04F00450D9260550DA22F2
:1037AC00DF50E86F20EE06F00450D9260550DA22DF
:1037BC00DF50E96F20EE08F00450D9260550DA22CC
:1037CC00DF50EA6F20EE0AF00450D9260550DA22B9
:1037DC00DF50EB6F20EE0CF00450D9260550DA22A6
:1037EC00DF50EC6F20EE0EF00450D9260550DA2293
:1037FC00DF50ED6F600008F008F0083A0846E2511F
:10380C0008181F0B0818E26F600008F008F0600041
:10381C000CF009F009340932083209340932083243
:10382C000934093208320850E16FE5510618F00BE3
:10383C000618E56FE59DE087E0B71200FDD7000E96
:10384C0000017915816F000E7A15826F800E7B1541
:10385C00836F7F0E7C15846F8151821183118411CB
:10386C00D8A408D0000E796F000E7A6F000E7B6F13
:10387C00000E7C6F000E7D15816F000E7E15826F21
:10388C00800E7F15836F7F0E8015846F815182119E
:10389C0083118411D8A408D0000E7D6F000E7E6FAA
:1038AC00000E7F6F000E806F7CAF09D0796D7A1F90
:1038BC00D8B07A2B7B1FD8B07B2B800E7C5780AF77
:1038CC0009D07D6D7E1FD8B07E2B7F1FD8B07F2B8B
:1038DC00800E8057000E791B000E7A1B000E7B1B8E
:1038EC00800E7C1B000E7D1B000E7E1B000E7F1BB2
:1038FC00800E801B7D51795D7E517A597F517B59A9
:10390C0080517C59D8B002D0D8901200D8801200C7
:10391C00000162356335696F6951D8A409D0000E76
:10392C00606F000E616F000E626F000E636F12000D
:10393C00600080F164F0600084F165F0600088F153
:10394C0066F060008CF167F0200E05D0D8906733DC
:10395C00663365336433E82EF9D76451686F628F30
:10396C00FF0E6017FF0E6117FF0E6217000E631734
:10397C00960E695F69AF0DD06951800A970FD8A078
:10398C00CED7D8906333623361336033693FF9D754
:10399C000DD01F0E696507D0C2D7D890603761373C
:1039AC006237633769076951D8A4F7D76851D8B41F
:1039BC0008D0631F621F611F606D000E61236223BC
:1039CC006323600080F160F0600084F161F06000BE
:1039DC0088F162F060008CF163F01200E40EF66E78
:1039EC002F0EF76E000EF86E00EE8CF210EE68F1F2
:1039FC0009006F00D7FFEEFFE550E150F9E1E2500E
:103A0C00F7E1C00EF66E3E0EF76E000EF86E00EE8D
:103A1C0000F210EE8CF009006F00D7FFEEFFE550BE
:103A2C00E150F9E1C80EF66E460EF76E000EF86E18
:103A3C0000EEB9F110EE04F009006F00D7FFEEFFB5
:103A4C00E550E150F9E1C40EF66E460EF76E000E2D
:103A5C00F86E00EE59F010EE04F009006F00D7FF7D
:103A6C00EEFFE550E150F9E100EE00F1630EEE6A75
:103A7C00E806FDE10001FE6BFD6BFC6BFB6B00EEE1
:103A8C004BF00E0EEE6AE806FDE1080ED56E000E48
:103A9C00D66E000ED76E000EF86E000103EF06F026
:103AAC00600080F167F0600084F168F0600088F1DC
:103ABC0069F060008CF16AF000016407D8A065071A
:103ACC0064290FE16529D8A40CD0000E616F000E9B
:103ADC00606F1200674B682B694B6A2B6407D8A088
:103AEC00650760009FF1D9FF6000A3F1DAFFDF509A
:103AFC00D8B422D06000A7F1F6FF6000ABF1F7FF5D
:103B0C000800F5500009D8B417D064516511D8B429
:103B1C0013D060009FF1D9FF6000A3F1DAFFDF50F2
:103B2C00666F6000A7F1F6FF6000ABF1F7FF0800CD
:103B3C00F5506619D8B4CED760009FF1D9FF60005C
:103B4C00A3F1DAFFDF50666F6000A7F1F6FF6000AB
:103B5C00ABF1F7FF0800F550665D606F616BD8A0A4
:103B6C00610712000001FDA10ED06000C8F169F0E0
:103B7C006000CCF16AF06000C0F16BF06000C4F141
:103B8C006CF01FEC22F0000175BF07D06000D0F183
:103B9C0079F06000D4F17AF004D0000E7A6F000E48
:103BAC00796F000E786F000E776F0FD0000E616F7B
:103BBC00200E606F6000C0F162F06000C4F163F031
:103BCC0015EC1EF00001774B782B7951775D78510D
:103BDC00800A766F7A51800A7659D8A0E7D7FDB162
:103BEC000ED06000C8F169F06000CCF16AF06000A2
:103BFC00C0F16BF06000C4F16CF01FEC22F06000BF
:103C0C00C8F160F06000CCF161F0B6EC22F000017C
:103C1C0079516025706F7A516121716F120000012A
:103C2C0062516311D8B404D062516311D8A404D08A
:103C3C00605166EC23F0120020EE04F06251D9269C
:103C4C006351DA22DE50DE10D8B416D020EE04F028
:103C5C006251D9266351DA2210EE02F06251E1264C
:103C6C006351E222DE50E65CE650800A686FDE505B
:103C7C00800A6859D8B0120020EE02F06251D926A1
:103C8C006351DA226F0078FF64F06F0074FF65F007
:103C9C0060008BF1D9FF60008FF1DAFF6F0078FFC5
:103CAC0066F06F0074FF67F064516625D96E65513C
:103CBC006721DA6E600083F1DFFF20EE02F06251C3
:103CCC00D9266351DA22DE2A000EDD221200000111
:103CDC00646F00016405D8A411D063517F0F676F26
:103CEC0067390F0B656F67510F0B666F655135ECBC
:103CFC0023F00001665135EC23F01200020E64191A
:103D0C00D8A411D06351BF0F676F67390F0B656F64
:103D1C0067510F0B666F655135EC23F0000166514E
:103D2C0035EC23F01200030E6419D8A411D06351A2
:103D3C00930F676F67390F0B656F67510F0B666FCA
:103D4C00655135EC23F00001665135EC23F012007F
:103D5C00040E6419D8A412006351D30F676F67392E
:103D6C000F0B656F67510F0B666F655135EC23F0C8
:103D7C000001665135EC23F0120041D0020E636F46
:103D8C00030E6DEC1EF0D80E0001666F7F0E676F90
:103D9C0031EC20F0020E0001636F040E6DEC1EF08E
:103DAC00DE0E0001666F7F0E676F31EC20F01200A3
:103DBC00020E636F030E6DEC1EF0C00E0001666FF9
:103DCC007F0E676F31EC20F0020E0001636F040E62
:103DDC006DEC1EF0E30E0001666F7F0E676F31EC29
:103DEC0020F01200010E636F030E6DEC1EF0D20E6C
:103DFC000001666F7F0E676F31EC20F012006000DF
:103E0C0040F46CF0600044F46DF000016D51000A58
:103E1C00D8A4E8D76C51000AD8B4B0D7010AD8B4EA
:103E2C00C7D7E0D7000EC46EC3903A015091CB8037
:103E3C00000E606F000E1DEC23F0020E0001646F8B
:103E4C00A00E636F920EE82EFED7632FFCD7642F63
:103E5C00FAD700F0030E35EC23F0680E0001636F07
:103E6C00E40EE82EFED7632FFCD700F0030E35ECE2
:103E7C0023F0E50E0001636F910EE82EFED7632F41
:103E8C00FCD7030E35EC23F0020E35EC23F0020EBA
:103E9C0035EC23F0080E35EC23F0000E35EC23F056
:103EAC000C0E35EC23F0000E35EC23F0060E35EC41
:103EBC0023F012004E4F5F434841524745525F502A
:103ECC00524553454E542000464153545F4348419C
:103EDC00524745202020202020202000544F505FA6
:103EEC004F46465F43484152474520202020200042
:103EFC004348415247455F434F4D504C4554452034
:103F0C0020202000434841524745525F44495341C9
:103F1C00424C4544202020004641554C5420202042
:103F2C00202020202020202020202000554E4445F9
:103F3C0046494E45442020202020202020202000CF
:103F4C00000E00016015686F000E6115696F800E20
:103F5C0062156A6F7F0E63156B6F685169116A1178
:103F6C006B11D8A408D0000E606F000E616F000EAC
:103F7C00626F000E636F000E6415686F000E65159E
:103F8C00696F800E66156A6F7F0E67156B6F6851CF
:103F9C0069116A116B11D8A408D0000E646F000E61
:103FAC00656F000E666F000E676F645160190AE151
:103FBC006551611907E16651621904E16751631992
:103FCC00D8B402D0D8901200D8801200000E000194
:103FDC00656F63AF06D0626D631FD8B0632B010EA3
:103FEC00656F61AF06D0606D611FD8B0612B010E9B
:103FFC00651B000E676F000E666F62516311D8B4BB
:10400C001CD0010E646F04D0D89062376337642BD8
:10401C0063AFFAD7D890663767376251605D6351EA
:10402C006159D8A005D06251605F6351615B6681B4
:10403C00D89063336233642FEDD76551D8B404D074
:10404C00666D671FD8B0672B600098F160F0600058
:10405C009CF161F01200000E00016B6F000E6A6F94
:10406C0020D000016A516625686F6B516721696F1A
:10407C006000A3F1F6FF6000A7F1F7FFF86A070EE6
:10408C00F76403D00800F55007D06F00DBFFE1FFA9
:10409C006F00DFFFE2FFE75060EC22F000016A4B9B
:1040AC006B2B6A516625686F6B516721696F6000D5
:1040BC00A3F1F6FF6000A7F1F7FFF86A070EF764AB
:1040CC0003D00800F55007D06F00DBFFE1FF6F0055
:1040DC00DFFFE2FFE7500009D8B41200C2D7000E90
:1040EC000001656F61AF06D0606D611FD8B0612BA8
:1040FC00010E656F63AF04D0626D631FD8B0632B84
:10410C0062516311D8B418D0010E646F04D0D890EA
:10411C0062376337642B63AFFAD76251605D6351CA
:10412C006159D8A004D06251605F6351615BD89033
:10413C0063336233642FF1D76551D8B404D0606D0A
:10414C00611FD8B0612B600080F160F0600084F1D9
:10415C0061F012006000CCF3F7F06000D0F3F8F0DF
:10416C00000E4C6E000E4B6E18D06000C4F3D1F0F4
:10417C006000C8F3D2F0F70E0001D36F000ED46FBD
:10418C006000D4F3D5F06000D8F3D6F0C7EC09F09A
:10419C000001D1514B26D2514C226000DFF3F6FFC7
:1041AC006000E3F3F7FF0800F5500009D8A4DDD751
:1041BC0060002CF1F1F0600030F1F2F01200330EDF
:1041CC003A010A6FC394C386509550978F8E8F9C7B
:1041DC008F9A8E38E832070B040AD8A4FAD7370125
:1041EC000351C00B1F09036F000EA06FA1511F0BD1
:1041FC004009A16FA197B869E00EB913809C808A21
:10420C008090A469E00EA513A597BC69E00EBD13C0
:10421C00F09DF08BF0911F0E8F168E38E832070B45
:10422C000009D8B41200F9D7600088F166F060007C
:10423C008CF167F0600080F168F0600084F169F047
:10424C0000016651646F6751656F664B672B6000A8
:10425C0093F1F6FF600097F1F7FFF86A6000A3F1A5
:10426C00D9FF6000A7F1DAFF684B692B070EF764E2
:10427C0003D00800F55007D06F00DBFFE1FF6F00A3
:10428C00DFFFE2FFE750DF6EDF50D8B41200D8D763
:10429C00000E00017D1B000E7E1B000E7F1B800E8E
:1042AC00801B6000E4F160F06000E8F161F06000F8
:1042BC00ECF162F06000F0F163F06000F4F164F096
:1042CC006000F8F165F06000FCF166F0600000F24F
:1042DC0067F0F0EC0EF0600080F179F0600084F192
:1042EC007AF0600088F17BF060008CF17CF01200B9
:1042FC00670E01016D6F010E6E6F60008CF56FF132
:10430C00600090F570F1000E726F000E716F000E70
:10431C00746F000E736F6F0E0001F16F010EF26F70
:10432C00600094F5F3F0600098F5F4F06D0EF56F05
:10433C00010EF66FB0EC20F0010171516325D96EBE
:10434C0072516421DA6E000EDF6E1200BF0E000196
:10435C00686FFF0E696F600098F16AF060009CF165
:10436C006BF068516A2769516B236B5106E11A0E89
:10437C006A5DD8B002D0010E01D0000E6C6F6D6B6F
:10438C006C516D11D8B406D0200E6611666F675152
:10439C00676F1200600098F166F060009CF167F0A6
:0243AC001200FD
:1043B000CAA011D0010110514F5C5050800A016E0B
:1043C0001151800A0158D8B014D01007D8A0110795
:1043D0005DEC23F00ED05B500101105D1151800A9D
:1043E000016E5C50800A0158D8B003D0104B112BDD
:1043F000EFD73901A1911100010E0001666F200E67
:1044000060196111D8B416D0F70E626FFF0E636F9A
:10441000600080F164F0600084F165F0625164270F
:1044200063516523655104E1050E645DD8A002D097
:10443000000E666F600098F160F0616B1200000E74
:1044400000016F6F000E6E6F0FD06000B4F160F06E
:10445000616B6000ACF162F06000B0F163F015ECEC
:104460001EF000016E4B6F2B6E516925D96E6F5196
:104470006A21DA6EDF506D6F6D51D8B41200E5D746
:10448000000173BF05D0735114E17205D8B011D08B
:104490006000C8F174F06000CCF175F0741F751FF6
:1044A000744B752B6000D0F172F06000D4F173F0A2
:1044B00012006000C8F172F06000CCF173F01200DD
:1044C0000001636F000163510F0B616F6351F00BCB
:1044D000626FCC8062390F0B1DEC23F0CC82D50EBD
:1044E000E82EFED700F0CC92000161511DEC23F0C4
:1044F000CC82D50EE82EFED700F0CC92120000013F
:104500006051611162116311D8B408D0000E601BB4
:10451000000E611B000E621B800E631B600080F1A9
:1045200060F0600084F161F0600088F162F060008A
:104530008CF163F01200BF0E0001626FFF0E636F1B
:10454000600080F164F0600084F165F062516427DE
:1045500063516523655106E11A0E645DD8B002D03F
:10456000010E01D0000E606F616B1200600080F1DF
:1045700062F0600084F163F003D00001604B612BB6
:10458000600083F1D9FF600087F1DAFFDF50D8A423
:10459000F4D700016251605D606F63516159616FD2
:1045A0001200D00E0001626FFF0E636F600080F199
:1045B00064F0600084F165F0625164276351652303
:1045C000655106E10A0E645DD8B002D0010E01D03B
:1045D000000E606F616B12003A015093C392CB8260
:1045E000B88EB898F00EB816B9501F0BA009B96E66
:1045F000B988B950F00B0909B96E000EB66E320ECB
:10460000B76E3901938FA39F1200000160516203BE
:104610006F00CCFF64F06F00D0FF65F06051630362
:10462000F350652761516203F3506527600090F1F4
:1046300060F0600094F161F012000001606F000111
:1046400060A102D0CC8401D0CC9460A302D0CC8AEB
:1046500001D0CC9A60A502D0CC8C01D0CC9C60A7B4
:1046600002D0CC8E1200CC9E12000001626FCC9062
:10467000000162511DEC23F0CC82540E0001616FE9
:104680001C0EE82EFED7612FFCD700F0CC92120052
:0E469000000E35EC23F0010E35EC23F0120085
:0E46A000000E0101116F10693901A593110080
:1046B000CB92B89E3901A39F1100CB82B88E000E19
:0E46C000B66E1200010001000600010012009B
:0246D0001100D7
:107E7A000057656C636F6D6520746F2074686520A8
:107E8A00726F626F7400526F626F742077696C6CE4
:107E9A00206D6F77696E6721210052656C65617389
:107EAA006520666F72207265737461727400457220
:107EBA00726F722073746174656D616368696E654F
:107ECA000052656C6561736520666F722072657415
:107EDA0075726E00457865637574696E672073659F
:107EEA006C66746573740045786563757465207390
:107EFA00656C66746573743F0053656C667465736C
:107F0A007420776173204F4B2100746F206368617E
:107F1A007267696E6720626173650053656C667487
:107F2A00657374206661696C656400526F626F7470
:107F3A002077696C6C206D6F7665005075736820C8
:107F4A00746F20726573746172740041726520796E
:107F5A006F7520737572653F3F0052657475726E56
:107F6A00696E6720686F6D6500526F626F74206971
:107F7A007320737475636B004368617267696E6717
:107F8A0020726F626F74004D61737465722053546E
:107F9A004154453A004D6F77696E67206C61776E80
:107FAA000054727920416761696E3F00566F6C74A4
:107FBA006167653A20002059657320002E2E2E2E07
:107FCA002E0025332E3266004572726F72007C597C
:107FDA0065737C00204E6F20007C4E6F7C00494EFA
:107FEA0046004E414E00696E66006E616E00253392
:067FFA0064006C6600004B
:020000040020DA
:10000000FF0FFF0FFF0FFF0FFF0FFF0FFF0FFF0F80
:020000040030CA
:0A0000008FFFFFFF9FFFFFFFFFFFD0
:00000001FF
