:020000040000FA
:0400000054EF00F0C9
:1000080029002900290029002900290029002900A0
:1000180070032900BF0329002900290029002900AD
:100028002900290029002900290029002900290080
:100038002900290029002900290029002900B803DE
:100048002900290029002900290029002900290060
:100058003203B203290029002900290029002900B8
:100068002900290029002900290029002900290040
:100078002900290029002900290029002900290030
:100088002900290029002900290029002900290020
:100098002900290029002900290029002900FF003A
:0400A800BEEF06F0B1
:100800000057656C636F6D6520746F207468652098
:10081000726F626F740000457865637574696E6706
:100820002073656C66746573740000457865637544
:1008300074652073656C66746573743F00526F62F3
:100840006F742077696C6C206D6F7665000053655E
:100850006C667465737420776173206F6B2100532D
:1008600074617274696E67206D6F776572210041E3
:10087000726520796F7520737572653F3F002E2E6B
:100880002E2E2E2E2E002059657320004572726F79
:1008900072007C5965737C00204E6F20007C4E6F87
:0308A0007C0000D9
:1008A400600E3901D96F2EEC06F01EEC07F03A0108
:1008B400409140934095010EC06FC280C282C284B1
:1008C40039019181A191D280D28CD28ED29A958114
:1008D4009593D28EC3903A015091CB80E8EC05F009
:1008E4005DEC07F0010E1F6E010E98EC05F0010E91
:1008F400206E080E216E95EC06F0010E1F6E020E9E
:1009040098EC05F02B0E206E080E216E95EC06F087
:1009140044EC05F02C042D10D8B43BD05DEC07F06A
:10092400010E1F6E010E98EC05F03D0E206E080EB0
:10093400216E95EC06F0010E1F6E020E98EC05F088
:100944006F0E206E080E216E95EC06F044EC05F057
:100954002C042D10D8B4C4D7000E396E020E386E94
:100964005DEC07F0010E1F6E010E98EC05F0170EFA
:10097400206E080E216E95EC06F0010E1F6E020E1D
:1009840098EC05F07E0E206E080E216E95EC06F0B4
:10099400FFD75DEC07F0010E1F6E010E98EC05F019
:1009A4005F0E206E080E216E95EC06F0FFD737011E
:1009B400E097F10E8F16030EE013600013F0D9FFD9
:1009C400600017F0DAFFDF50E66F20EE02F004500B
:1009D400D9260550DA22DF50E76F20EE04F00450E8
:1009E400D9260550DA22DF50E86F20EE06F00450D5
:1009F400D9260550DA22DF50E96F20EE08F00450C2
:100A0400D9260550DA22DF50EA6F20EE0AF00450AE
:100A1400D9260550DA22DF50EB6F20EE0CF004509B
:100A2400D9260550DA22DF50EC6F20EE0EF0045088
:100A3400D9260550DA22DF50ED6F600008F008F087
:100A4400083A0846E25108181F0B0818E26F6000C4
:100A540008F008F060000CF009F00934093208329B
:100A64000934093208320934093208320850E16F76
:100A7400E5510618F00B0618E56FE59DE087E0B731
:100A84001200FDD74CD0020E1F6E030E98EC05F039
:100A9400920E206E080E216E95EC06F0020E1F6E6B
:100AA400040E98EC05F0980E206E080E216E95EC5D
:100AB40006F035D0020E1F6E030E98EC05F0860E7C
:100AC400206E080E216E95EC06F0020E1F6E040EC9
:100AD40098EC05F09D0E206E080E216E95EC06F044
:100AE4001ED0010E1F6E030E98EC05F08C0E206EC6
:100AF400080E216E95EC06F012D06000B0F026F0DE
:100B04006000B4F027F02750000AD8A4EAD7265092
:100B1400000AD8B4B8D7010AD8B4CCD7E2D7CAB43B
:100B2400ECD7CAA4FED76BEC07F01200206E2004A9
:100B3400D8A410D01F507F0F236E23380F0B216EC3
:100B440023500F0B226E21504DEC07F022504DEC38
:100B540007F01200020E2018D8A410D01F50BF0FA7
:100B6400236E23380F0B216E23500F0B226E21505E
:100B74004DEC07F022504DEC07F01200030E201844
:100B8400D8A410D01F50930F236E23380F0B216E5F
:100B940023500F0B226E21504DEC07F022504DECE8
:100BA40007F01200040E2018D8A412001F50D30F0F
:100BB400236E23380F0B216E23500F0B226E21500E
:100BC4004DEC07F022504DEC07F01200000EC46EFD
:100BD400C3903A015091CB80000E606F000E37EC49
:100BE40007F0020E206EA00E1F6E920EE82EFED7A6
:100BF4001F2EFCD7202EFAD700D0030E4DEC07F0A1
:100C0400680E1F6EE40EE82EFED71F2EFCD700D010
:100C1400030E4DEC07F0E50E1F6E910EE82EFED785
:100C24001F2EFCD700F0030E4DEC07F0020E4DEC26
:100C340007F0020E4DEC07F0080E4DEC07F0000E25
:100C44004DEC07F00C0E4DEC07F0000E4DEC07F0E8
:100C5400060E4DEC07F01200330E3A010A6FC394EE
:100C6400C386509550978F8E8F9C8F9A8E38E8321A
:100C7400070B040AD8A4FAD737010351C00B1F0984
:100C8400036F000EA06FA1511F0B4009A16FA19724
:100C9400B869E00EB913809C808A8090A469E00E44
:100CA400A513A597BC69E00EBD13F09DF08BF091E0
:100CB4001F0E8F168E38E832070B0009D8B41200C5
:020CC400F9D75E
:100CC80080BE1DD02BD06000B0F00CF06000B4F0F6
:100CD8000DF0000E036E000E026E0C0E046E000E78
:100CE800056E000E076E010E066ED9EC04F015D0E5
:100CF8006000E0F00CF06000E4F00DF0EAD78650F8
:100D08000A6E0B6A0B50000AD8A407D00A50000AD2
:100D1800D8B4D9D7010AD8B4EBD7809E3901A591A8
:100D28001100000E256E000E246E12D024502024CF
:100D3800226E25502120236E60008BF0F6FF6000A4
:100D48008FF0F7FF0800F55002EC07F0244A252A37
:100D580024502024226E25502120236E60008BF021
:100D6800F6FF60008FF0F7FF0800F5500009D8B4CF
:100D78001200DCD7F40EF66E0E0EF76E000EF86E4B
:100D880000EE36F010EE06F009006F00D7FFEEFF18
:100D9800E550E150F9E100EE2AF00C0EEE6AE806A3
:100DA800FDE1080ED56E000ED66E000ED76E000E51
:100DB800F86E000152EF04F0CAA010D02C502A5C43
:100DC8002B50800A016E2D50800A0158D8B013D0DC
:100DD8002C06D8A02D0675EC07F00DD03A502C5CE7
:100DE8002D50800A016E3B50800A0158D8B003D0BC
:100DF8002C4A2D2AF0D73901A19111001F6E1F50DE
:100E08000F0B1D6E1F50F00B1E6ECC801E380F0B83
:100E180037EC07F0CC82D50EE82EFED700F0CC9246
:100E28001D5037EC07F0CC82D50EE82EFED700F027
:100E3800CC9212003A015093C392CB82B88EB898E4
:100E4800F00EB816B9501F0BA009B96EB988B95081
:100E5800F00B0909B96E000EB66E320EB76E390185
:100E6800938FA39F12001C6E1CA002D0CC8401D0CB
:100E7800CC941CA202D0CC8A01D0CC9A1CA402D05B
:100E8800CC8C01D0CC9C1CA602D0CC8E1200CC9E5F
:100E980012001E6ECC901E5037EC07F0CC82540E18
:100EA8001D6E1C0EE82EFED71D2EFCD700D0CC924E
:100EB8001200000E4DEC07F0010E4DEC07F0120089
:100EC800000E2D6E450E2C6E3901A5931100CB82B4
:100ED800B88E000EB66E1200CB92B89E3901A39F51
:100EE8001100CB82B88E000EB66E12000100010010
:020EF8000100F7
:020EFC001100E3
:020000040020DA
:10000000FF0FFF0FFF0FFF0FFF0FFF0FFF0FFF0F80
:020000040030CA
:0A0000008FFFFFFF9FFFFFFFFFFFD0
:00000001FF
