:020000040000FA
:0400000054EF00F0C9
:1000080029002900290029002900290029002900A0
:10001800290029002F032900290029002900290087
:100028002900290029002900290029002900290080
:100038002900290029002900290029002900290070
:100048002900290029002900290029002900290060
:10005800B1002900290029002900290029002900C8
:100068002900290029002900290029002900290040
:100078002900290029002900290029002900290030
:100088002900290029002900290029002900290020
:100098002900290029002900290029002900FF003A
:1000A8004CEF06F0600E3901D96F7DEC03F0D3EC0C
:1000B80005F0B0EC05F03AEC03F0D28CD29A390195
:1000C80095819583D28ECC9216EC06F0CC8231ECD9
:1000D80006F0CC927EEC04F03D043E10D8A40CD07F
:1000E8007DEC05F06000F4F017F06000F8F018F00F
:1000F800000E0E6E010E07D0000E186E000E176E61
:10010800000E0E6E000E0D6E31EC06F0CC9416EC5F
:1001180006F0CC8431EC06F0CC944BEC04F03D04B2
:100128003E10D8A40CD04AEC05F06000F4F015F0AD
:100138006000F8F016F0000E0C6E010E07D0000EED
:10014800166E000E156E000E0C6E000E0B6E31EC66
:1001580006F0CC9E16EC06F0CC8E31EC06F0CC9E68
:1001680018EC04F03D043E10D8A40CD017EC05F0B0
:100178006000F4F013F06000F8F014F0000E0A6E5E
:10018800010E07D0000E146E000E136E000E0A6EDC
:10019800000E096E31EC06F0CA9216EC06F0CA821F
:1001A80031EC06F0CA92E5EC03F03D043E10D8A409
:1001B8000CD0E4EC04F06000F4F011F06000F8F00A
:1001C80012F0000E086E010E07D0000E126E000E1F
:1001D800116E000E086E000E076E31EC06F0CA9420
:1001E80016EC06F0CA8431EC06F0CA94B2EC03F0BF
:1001F8003D043E10D8A40CD0B1EC04F06000F4F03B
:100208000FF06000F8F010F0000E066E010E07D037
:10021800000E106E000E0F6E000E066E000E056EBC
:1002280031EC06F0000E3E6E000E3D6EF6EC05F069
:100238006000F4F062F06000F8F063F0000E3E6ECB
:10024800010E3D6EF6EC05F06000F4F064F060001D
:10025800F8F065F060008CF160F00001616B60BF40
:10026800616960511F6E206A62511D6E1E6A6000CE
:1002780094F160F0616B60BF616960511B6E1C6A2C
:100288006451196E1A6A210E3D6E000E3E6E090EFB
:1002980047EC02F06000F4F003F06000F8F004F0BE
:1002A800210E3D6E000E3E6E0A0E47EC02F0600015
:1002B800F4F001F06000F8F002F005D780BEBCD081
:1002C800DFD0000E2E6E010E2D6E000E246E000E75
:1002D800236E2D0E256E000E266E000E286E010E62
:1002E800276ECFEC02F0CBD060007CF02DF06000E0
:1002F80080F02EF0600074F02FF0600078F030F09D
:10030800000E246E000E236E2D0E256E000E266E36
:10031800000E286E020E276ECFEC02F0B0D06000FF
:100328006CF02DF0600070F02EF0600064F02FF09B
:10033800600068F030F0E4D7600060F02BF02C6AC1
:100348002BBE2C682B502D6E2E6A17502F6E306ADC
:10035800600034F031F0600038F032F0000E246EA6
:10036800000E236E2D0E256E000E266E000E286ED2
:10037800030E276ECFEC02F082D0600058F02BF00D
:100388002C6A2BBE2C682B502D6E2E6A15502F6EA2
:10039800306A60002CF031F0600030F032F0DED7C7
:1003A800600050F02BF02C6A2BBE2C682B502D6E61
:1003B8002E6A13502F6E306A600024F031F060000E
:1003C80028F032F0CBD7600048F02BF02C6A2BBE17
:1003D8002C682B502D6E2E6A11502F6E306A6000DB
:1003E8001CF031F0600020F032F0B8D7600040F027
:1003F8002BF02C6A2BBE2C682B502D6E2E6A0F50BA
:100408002F6E306A600014F031F0600018F032F09E
:10041800A5D760000CF02DF0600010F02EF0600001
:1004280004F02FF0600008F030F0600084F031F044
:10043800600088F032F092D786502B6E2C6A2C50D0
:10044800000AD8A41CD02B50000AD8B43AD7010A05
:10045800D8B44AD7030AD8B462D7010AD8B46CD73B
:10046800070AD8B48AD7010AD8B49AD7030AD8B4E5
:10047800AAD7010AD8B4BAD70F0AD8B4CAD7809E67
:100488003901A59111003F6E3D01789F7897000EC4
:10049800426E010E416E100E6E6F6000FFF06BFD34
:1004A80077AFFED7010E6C6F738D738B000E446EA1
:1004B800000E436E02D0434A442A73B708D044BEA4
:1004C800FAD7A80E435C610E4458D8A0F4D744BEAE
:1004D8000AD0A80E435C610E4458D8A004D0000E80
:1004E800426E000E416E110E6E6F010E6C6F738BB3
:1004F800739D000E446E000E436E02D0434A442A98
:1005080078B108D044BEFAD7A80E435C610E4458AF
:10051800D8A0F4D744BE0BD0A80E435C610E445853
:10052800D8A005D0000E426E000E416E03D06F00B9
:10053800A8F540F0000E446E000E436E02D0434A08
:10054800442A79B508D044BEFAD7A80E435C610E98
:100558004458D8A0F4D744BE0AD0A80E435C610E14
:100568004458D8A004D0000E426E000E416E799512
:10057800799178856000F7F0D9FF6000FBF0DAFF29
:10058800600007F1DEFF60000BF1DDFF600000F1A5
:100598003DF03E6A12003701E097F10E8F16030E08
:1005A800E013600097F0D9FF60009BF0DAFFDF509E
:1005B800E66F20EE02F02550D9262650DA22DF50C9
:1005C800E76F20EE04F02550D9262650DA22DF50B6
:1005D800E86F20EE06F02550D9262650DA22DF50A3
:1005E800E96F20EE08F02550D9262650DA22DF5090
:1005F800EA6F20EE0AF02550D9262650DA22DF507D
:10060800EB6F20EE0CF02550D9262650DA22DF5069
:10061800EC6F20EE0EF02550D9262650DA22DF5056
:10062800ED6F60008CF029F0293A2946E25129182B
:100638001F0B2918E26F60008CF029F0600090F021
:100648002AF02A342A3229322A342A3229322A3400
:100658002A3229322950E16FE5512718F00B271863
:10066800E56FE59DE087E0B71200FDD7BC96BC9822
:10067800C496C4983A016097609962876289010EAE
:100688006A6F6397010E6B6F6399D2AE02D0010E49
:1006980001D0000E3D6E3E6AD29E550EBF6FAA0E67
:1006A800BF6FBF91210E136F220E146FE451E00B40
:1006B8001409E46FE351E00B1309E36F550EBF6FA4
:1006C800AA0EBF6FBF813DA002D0D28E01D0D29EAC
:1006D800040E3D01736F800E746F240E756F030E48
:1006E8007B6F000E796F000E766F738F76817A8D2F
:1006F8001200330E3A010A6FC394C386509550977F
:100708008F8E8F9C8F9A8E38E832070B040AD8A4F4
:10071800FAD737010351C00B1F09036F000EA06FF2
:10072800A1511F0B2009A16FA197B869E00EB91359
:10073800809C808A8090A469E00EA513A597BC6967
:10074800E00EBD13F09DF08BF0911F0E8F168E38C2
:10075800E832070B0009D8B41200F9D7000E426E30
:10076800000E416E000EB16E000EB06EB2800DD05C
:10077800B0506F00C4FE3FF0406A6000FCF040F0EB
:100788003F6A3F10416E4050426ECAB808D042BE20
:10079800EFD7100E415C270E4258D8A0E9D742BEC9
:1007A8000BD0100E415C270E4258D8A005D0000E81
:1007B8003E6E000E3D6E1200000E3E6E010E3D6E46
:1007C8001200000E426E000E416E000EB16E000E59
:1007D800B06EB2800DD0B0506F00C4FE3FF0406ADA
:1007E8006000FCF040F03F6A3F10416E4050426E9E
:1007F800CBB808D042BEEFD7100E415C270E425846
:10080800D8A0E9D742BE0BD0100E415C270E425843
:10081800D8A005D0000E3E6E000E3D6E1200000EF0
:100828003E6E010E3D6E1200000E426E000E416ECD
:10083800000EB16E000EB06EB2800DD0B0506F00D9
:10084800C4FE3FF0406A6000FCF040F03F6A3F1091
:10085800416E4050426ECABA08D042BEEFD7100E61
:10086800415C270E4258D8A0E9D742BE0BD0100EE3
:10087800415C270E4258D8A005D0000E3E6E000EEF
:100888003D6E1200000E3E6E010E3D6E1200000E0F
:10089800426E000E416E000EB16E000EB06EB28058
:1008A8000DD0B0506F00C4FE3FF0406A6000FCF00D
:1008B80040F03F6A3F10416E4050426ECBB008D0C6
:1008C80042BEEFD7100E415C270E4258D8A0E9D798
:1008D80042BE0BD0100E415C270E4258D8A005D05E
:1008E800000E3E6E000E3D6E1200000E3E6E010EB2
:1008F8003D6E1200000E426E000E416E000EB16E8B
:10090800000EB06EB2800DD0B0506F00C4FE3FF044
:10091800406A6000FCF040F03F6A3F10416E405072
:10092800426ECBB208D042BEEFD7100E415C270E04
:100938004258D8A0E9D742BE0BD0100E415C270E12
:100948004258D8A005D0000E3E6E000E3D6E120033
:10095800000E3E6E010E3D6E1200000E426E000E3D
:10096800416E000EB16E000EB06E0DD0B0506F002B
:10097800C4FE3FF0406A6000FCF040F03F6A3F1060
:10098800416E4050426ECAA808D042BEEFD7980EBA
:10099800415C3A0E4258D8A0E9D7B29042BE09D07D
:1009A800980E415C3A0E4258D8A003D03D683E6884
:1009B8001200600004F13DF0600008F13EF0120002
:1009C800000E426E000E416E000EB16E000EB06E4B
:1009D8000DD0B0506F00C4FE3FF0406A6000FCF0DC
:1009E80040F03F6A3F10416E4050426ECBA808D09D
:1009F80042BEEFD7980E415C3A0E4258D8A0E9D7CC
:100A0800B29042BE09D0980E415C3A0E4258D8A026
:100A180003D03D683E681200600004F13DF06000BC
:100A280008F13EF01200000E426E000E416E000EFC
:100A3800B16E000EB06E0DD0B0506F00C4FE3FF026
:100A4800406A6000FCF040F03F6A3F10416E405041
:100A5800426ECAAA08D042BEEFD7980E415C3A0E41
:100A68004258D8A0E9D7B29042BE09D0980E415C4E
:100A78003A0E4258D8A003D03D683E681200600084
:100A880004F13DF0600008F13EF01200000E426EE5
:100A9800000E416E000EB16E000EB06E0DD0B0505B
:100AA8006F00C4FE3FF0406A6000FCF040F03F6A0F
:100AB8003F10416E4050426ECBA008D042BEEFD7E7
:100AC800980E415C3A0E4258D8A0E9D7B29042BE7F
:100AD80009D0980E415C3A0E4258D8A003D03D6820
:100AE8003E681200600004F13DF0600008F13EF03D
:100AF8001200000E426E000E416E000EB16E000E26
:100B0800B06E0DD0B0506F00C4FE3FF0406A600078
:100B1800FCF040F03F6A3F10416E4050426ECBA25D
:100B280008D042BEEFD7980E415C3A0E4258D8A082
:100B3800E9D7B29042BE09D0980E415C3A0E4258AD
:100B4800D8A003D03D683E681200600004F13DF073
:100B5800600008F13EF01200010EB56E300EB212C0
:100B6800000EB16E000EB06E3A0160936095609F02
:100B78004093409550935091409B50994099C4920E
:100B8800C494C49EC292C294C382C380C28AC388DA
:100B9800C288CC92CC94CC9ECA92CA9412003E01D0
:100BA800C18FC151F30B0809C16FC151FC0B020978
:100BB800C16FC48CC48A3A01608D608B3E01F88F86
:100BC800FF51C00B1C09FF6FF30EF8170F0EFD172E
:100BD800FD51F00B0B09FD6FF151C00B1609F16FB8
:100BE800F88F12003D503E10D8A405D03E01F151B7
:100BF800C00B160908D03D043E10D8A405D03E010C
:100C0800F151C00B1509F16F3E01F881F8B1FED71B
:100C1800F051406E3F6AEF513F243D6E000E402078
:100C28003E6E1200000E3D6E000E3E6E000E3F6ED0
:100C3800000E406E00F0010E3D26000E3E223F22BF
:100C4800402240BEF7D740503F103E1005E1020E4B
:100C58003D5CD8B01200EED71200000E3D6E000EBB
:100C68003E6E000E3F6E000E406E00F0010E3D26F7
:100C7800000E3E223F22402240BEF7D740503F1090
:100C88003E1005E1060E3D5CD8B01200EED712000A
:100C980000EE01F0220EEE6AE806FDE1080ED56EC0
:100CA800000ED66E000ED76E000EF86E000156EFDD
:020CB80000F04A
:020CBC00110025
:020000040020DA
:10000000FF0FFF0FFF0FFF0FFF0FFF0FFF0FFF0F80
:020000040030CA
:0A0000008FFFFFFF9FFFFFFFFFFFD0
:00000001FF
